:020000041007E3
:10900000DFF858D072B614F0A9FF1549154A164B6F
:109010009A423EBF51F8040B42F8040BF8E713499B
:10902000134A144B9A423EBF51F8040B42F8040B0A
:10903000F8E7114A114B9A423EBF002042F8040B58
:10904000F9E70F4A0F4B9A423EBF002042F8040B4B
:10905000F9E70D4880470D48004700000000042054
:109060006C290F10000000206C0A0020D8330F106C
:1090700000001000B0271000B027100046C01000FC
:10908000700A00202474012039DF0810CDD50810A3
:10909000FEE700000002044B0022C25008334FF4E8
:1090A0000042C250704700BF1800018308B5431E3C
:1090B000D9B20A29024606D90649074851F0B8FB39
:1090C0004FF0FF3008BD054A054942F82310002043
:1090D00008BD00BFD2FD0C1050FD0C10F80100209F
:1090E00091900710304B31494FF400621A60304ABA
:1090F00011604FF480521A602E4A01F5A0111160E0
:109100004FF400521A602C4A2C4911604FF48042EF
:109110001A602B4A01F5A61111604FF400421A6043
:10912000284A01F5342111604FF480321A60264A32
:1091300001F5A61111604FF400321A60234A01F5BF
:10914000342111604FF480221A60214A01F5A611E2
:1091500011604FF400221A601E4A01F5FE111160E1
:109160004FF480121A6011441B4A11604FF4001230
:109170001A601A4A01F5801111604FF480021A60DA
:10918000174A01F5801111604FF400021A60154A68
:1091900001F5801111604FF080721A6003F58C3375
:1091A000FC33114A1A6070471800008312066000F1
:1091B000140C0183140D0183140E01831000800030
:1091C000140F0183141001831411018314120183FD
:1091D00014130183141401831415018314160183DD
:1091E000141701831418018312C0440110B5120230
:1091F000064C105106481150064953503039029B15
:1092000053504031039B535010BD00BF2C000183CD
:1092100044000183400001830002034BC25842F422
:109220000042C250704700BF140001830002034B8C
:10923000C25822F40042C250704700BF140001839C
:1092400010B504462402FFF725FF024B4FF40042FD
:10925000E25010BD180001830C38024B43F8201077
:10926000704700BF240200200C38024B43F8201046
:10927000704700BFC00100200123013803FA00F04D
:10928000014B1860704700BF1800008310B5104BE9
:109290001A68002301219940114202D00D491A2079
:1092A000585401330B2BF5D100240134E4B220468D
:1092B000FFF7E2FF0B2CF8D10120074901F01AFC5F
:1092C000064BA02283F8012302221A6010BD00BFC2
:1092D0005C020020740A0020F592071000E100E013
:1092E0000123013803FA00F0014B1860704700BFFA
:1092F00014000083F8B55A4B5A4D0222C3F880205F
:1093000000242B6813F4004F04F1010614D0F7B2C7
:109310003846FFF7BFFE4FF400436B600122630045
:109320009A40514B1B681A42FBD13846FFF7D8FFD1
:109330004E4B53F8243098470B2E344605F5807574
:10934000DFD14B4C2368A26811043BD51B0D063BB3
:109350000E2B34D8DFE803F0080B0E1114171A1D7A
:1093600033202326292C2F00424B1B6825E0414B3C
:109370005B6822E03F4B9B681FE03E4BDB681CE0D4
:109380003C4B1B6919E03B4B5B6916E0394B9B6911
:1093900013E0384BDB6910E0364B1B6A0DE0354BB0
:1093A0005B6A0AE0334B9B6A07E0324BDB6A04E0FE
:1093B000304B1B6B01E02F4B5B6B03B198474FF4B5
:1093C0000043E3602C4D04F58074AC42BAD1284CC4
:1093D0002368A268D2033BD51B0D063B0E2B34D865
:1093E000DFE803F0080B0E1114171A1D3320232693
:1093F000292C2F00214B1B6825E0204B5B6822E0C5
:109400001E4B9B681FE01D4BDB681CE01B4B1B6960
:1094100019E01A4B5B6916E0184B9B6913E0174B78
:10942000DB6910E0154B1B6A0DE0144B5B6A0AE028
:10943000124B9B6A07E0114BDB6A04E00F4B1B6B7E
:1094400001E00E4B5B6B03B198474FF48033E36050
:1094500004F58074AC42BBD1014B02221A60F8BD06
:1094600000E100E01C01018300000183F8010020FD
:10947000140C018324020020141A0183C00100206F
:1094800010B556F049FC0C4A1368012B05D1002495
:10949000146056F0F1FB204610BD23B956F0ECFBEA
:1094A0006FF0010010BD56F0E7FB0448044A054B7D
:1094B0007F2150F0B5FC00BF6402002011FE0C10AB
:1094C0005DFE0C10D8090D1008B556F025FC084BB0
:1094D0001A682AB901221A60BDE8084056F0CCBBD0
:1094E00056F0CAFB0348044A044B8D2150F098FC07
:1094F0006402002011FE0C1081FE0C10D8090D1022
:1095000008B5FFF7BDFF0028FBD108BD70B50446C4
:109510000E461546FFF7F4FF304621462A4651F025
:1095200083F8BDE87040FFF7CFBF000070B50C4670
:1095300016460546FFF7E4FF01F0C2FA01F010FA03
:1095400029462246304656F0CFFB054B0022044602
:109550001A7001F0F1F9FFF7B7FF204670BD00BFA8
:109560006002002008B50A4A13689BB21360DA074C
:1095700005D5002000F0B6FD064B1B6806E09B07F2
:1095800005D5012000F0AEFD024B5B68984708BD91
:1095900000000583880A0020022870B504460D46A5
:1095A00016460BD904283DD1214B1A6842F001021E
:1095B00042EA450500221D605A6070BD27D0182080
:1095C0001C4901F097FA1C4BA02283F818234FF096
:1095D00080721A605CB9194B1E60194B1A6842F010
:1095E00001021A60DA6842EA8505DD6070BD012C6F
:1095F0000BD1124B5E60124B1A6842F002021A60E5
:10960000DA6942EA8505DD6170BD022C07D10D4B98
:109610001A6842F0010242EA45051D6070BD042C43
:10962000C2D070BD08480949952251F001F9FEE702
:10963000600005836595071000E100E0880A0020BE
:1096400004000583300005837AFD0C10A0FE0C1089
:10965000022808B504D904280AD1084B186808BDA7
:1096600008B9074BFAE701280CBF064B064BF5E794
:1096700006480749B12251F0DBF8FEE76800058390
:109680004000058344000583340005837AFD0C10F7
:10969000A0FE0C10022001210022FFF77DBF042054
:1096A00001210022FFF778BF00F01F03C0F34F1025
:1096B00010B510B101284CD077E0012924D11A2B24
:1096C00005D83B4A1468994024EA010116E01B2B97
:1096D00001D1384A0BE01C2B01D1374A07E01D2B82
:1096E00001D1364A03E01E2B0CBF354A354A1168BA
:1096F00021F002011160116841F400611160012242
:1097000002FA03F3304A22E01A2B06D8284A012134
:10971000146899402143116015E01B2B01D12549A4
:109720000BE01C2B01D1244907E01D2B01D123495B
:1097300003E01E2B0CBF224922490A6842F4006252
:1097400042F002020A60012202FA03F31F4A136088
:1097500010BD012914D12BB11D4A1068994020EA8F
:10976000010107E01B4A116821F002011160116834
:1097700041F400611160012202FA03F3164A11E07C
:109780002BB1134A116898400843106006E0114954
:109790000A6842F4006242F002020A60012202FA00
:1097A00003F30E4A1360002010BD4FF0FF3010BDD0
:1097B00000B10083483002814C3002815C3002816C
:1097C000583002815430028194B0008398B00083F5
:1097D00004B1008350300281A4B00083A8B000839C
:1097E00000F01F03C0F34F1010B1012809D012E0A0
:1097F000012202FA03F309B1084900E008490B60AD
:109800007047984019B1074B186000207047064B0D
:109810001860084670474FF0FF30704764B000830F
:1098200068B0008374B0008378B0008300F01F0339
:10983000C0F34F1018B1012807D1054A00E0054ACE
:109840001068D84000F0010070470020704700BF4A
:1098500070B0008360B0008300F01F03C0F34F10AE
:1098600018B1012807D1054A00E0054A1068D84020
:1098700000F0010070470020704700BFC4B00083B3
:10988000C0B0008300F01F03C0F34F1018B10128CF
:1098900007D1054A00E0054A1068D84000F00100F1
:1098A00070470020704700BFA0B0008390B00083D5
:1098B00000F01F03C0F34F1010B1012821D032E097
:1098C0001A2B05D8012202FA03F3184A13607047D5
:1098D0001B2B01D1164B0BE01C2B01D1154B07E0C4
:1098E0001D2B01D1144B03E01E2B0CBF134B144B4B
:1098F0001A6822F01C021A601A6842F400621A60A8
:10990000704753B90F4A116821F01C0111601168AA
:1099100041F400611160184670470B4A00FA03F3E6
:109920001360002070474FF0FF30704708B000838D
:10993000483002814C3002815C3002815830028113
:10994000543002815030028118B0008338B505468A
:1099500000F01F04FFF7ACFFC5F34F1010B1012852
:1099600023D036E01A2C05D8012303FA04F41A4B4D
:109970001C6038BD1B2C01D1184B0BE01C2C01D1F5
:10998000174B07E01D2C01D1164B03E01E2C0CBF1A
:10999000154B164B1A6822F01C021A601A6842F422
:1099A000016242F004021A6038BD64B9104B1A68B3
:1099B00022F01C021A601A6842F4016242F00402AA
:1099C0001A60204638BD0B4B00FA04F41C600020DE
:1099D00038BD4FF0FF3038BD34B0008348300281CD
:1099E0004C3002815C300281583002815430028157
:1099F0005030028144B0008300F01F03C0F34F10C9
:109A000010B1012821D032E01A2B05D8012202FA28
:109A100003F3184A136070471B2B01D1164B0BE060
:109A20001C2B01D1154B07E01D2B01D1144B03E07A
:109A30001E2B0CBF134B144B1A6822F01C021A6029
:109A40001A6842F400621A60704753B90F4A1168ED
:109A500021F01C011160116841F400611160184689
:109A600070470B4A00FA03F31360002070474FF071
:109A7000FF30704738B00083483002814C3002819B
:109A80005C300281583002815430028150300281B2
:109A900048B0008338B5054600F01F04FFF7ACFF5F
:109AA000C5F34F1010B1012823D036E01A2C05D889
:109AB000012303FA04F41A4B1C6038BD1B2C01D19E
:109AC000184B0BE01C2C01D1174B07E01D2C01D1CA
:109AD000164B03E01E2C0CBF154B164B1A6822F0D8
:109AE0001C021A601A6842F4006242F004021A6012
:109AF00038BD64B9104B1A6822F01C021A601A684B
:109B000042F4006242F004021A60204638BD0B4B5A
:109B100000FA04F41C60002038BD4FF0FF3038BD5F
:109B200004B00083483002814C3002815C300281F5
:109B300058300281543002815030028114B00083C9
:109B400001294FEA501300F01F000FD19BB213B14F
:109B5000012B06D07047104B1A68814011431960E1
:109B600070470E4A116883400B4313E099B99BB2CA
:109B700013B1012B09D07047074B01211A6801FA74
:109B800000F022EA000018607047044A1168834020
:109B900021EA030313607047801002818410028160
:109BA000014B1878704700BF980A0020024B1868D4
:109BB00000F00040704700BF34C300833C2800F22F
:109BC000FE80DFE810F03D003F004100430045000B
:109BD000470049004B00FC00FC00FC00FC00FC00BE
:109BE000FC00FC00FC00FC00FC00FC00FC00FC0095
:109BF000FC00FC00FC004D005500570059006A00B5
:109C0000790086009500A500B500B700B900BB003B
:109C1000BD00C600CF00FC00FC00FC00FC00FC0006
:109C2000FC00FC00FC00FC00FC00FC00FC00FC0054
:109C3000FC00FC00FC00FC00D800E100EA00F3009E
:109C40005F4B0EE05E4B97E05D4B9EE05C4BA5E00A
:109C50005B4BACE05A4B74E0594B7BE0584B82E0D5
:109C6000584B1A6822F00F021A601A681143A5E0D7
:109C7000544B81E0534B88E0524B1A6822F47042F7
:109C80001A601A68022942EA01321A6003D00439C4
:109C9000012900F294801B2047E04A4B1A6822F405
:109CA00070221A601A6842EA0142043901291A60D6
:109CB00000F285801C2038E0424B1A6822F47002C2
:109CC0001A601A68062942EA01521A6077D11D20EB
:109CD0002BE03C4B1A6822F070621A601A68042963
:109CE00042EA01621A6001D0072968D11E201CE0F7
:109CF000344B1A6822F070421A601A6842EA017204
:109D000001F0FD0104291A6008BF1F2057D10CE0A3
:109D10002D4B1A6822F00F021A601A680A4301F0EC
:109D2000FD0104291A604AD120200021FFF7BCBCA4
:109D3000254B21E0244B28E0234B2FE0224B36E03B
:109D4000214B1A6822F470021A601A6842EA015123
:109D500034E01D4B1A6822F070621A601A6842EAF9
:109D600001612BE0184B1A6822F070421A601A68E1
:109D700042EA017122E0154B1A6822F0F0021A60E3
:109D80001A6842EA011119E0104B1A6822F4706255
:109D90001A601A6842EA012110E00C4B1A6822F49A
:109DA00070421A601A6842EA013107E0074B1A68EC
:109DB00022F470221A601A6842EA01411960704761
:109DC000203002812C300281303002813C3002810F
:109DD00008B50B4B98420ED179B90A4B1B680BB1F1
:109DE00008469847002001460246012300F0A4F8E7
:109DF00000F0F8F8FEE7022008BD002008BD00BF13
:109E000026061620A40A00200020704738B5144BFF
:109E10001A6842F0010205461A600024114A1268CD
:109E2000D207A3B206D42020013400F049F9642CF3
:109E3000F4D123460C4A12682A600C4A11680121A9
:109E4000116052F8141C21F00101642B42F8141C1B
:109E500015BF2B6800230020FE202B6040B238BDC8
:109E600000F00F8310F00F8308F00F8314F00F83BE
:109E7000FFF71ABCFFF7B4BCF8B5044608460D4618
:109E8000FFF700FD07462846FFF7E6FC0646284692
:109E9000FFF7CCFC2560A071277166712046F8BDE4
:109EA00010B501210446FFF74BFE2046BDE81040E7
:109EB000FFF7F0BD10B501210446FFF741FE204633
:109EC000BDE81040FFF742BD10B501210446FFF781
:109ED00037FE2046FFF790FD2046BDE81040FFF713
:109EE000E7BC00000C4B4FF48062C3F880200B4BA2
:109EF0001A6822F0F0021A601A6842F080021A60B2
:109F0000074B1A6842F002021A6053F8302C22F014
:109F1000020243F8302CFEE700E100E0203002812D
:109F200090B0008308B5016000F0D9F80A20BDE8C0
:109F3000084000F0C5B80000F7B51D46244B1C686A
:109F40000F46164624F47F4468B940F207100DF11D
:109F50000701012215F080FF1E4B1B689B0524F0B2
:109F6000080405D40BE044F4085444F0080415E058
:109F70009DF80730DB0902D144F408540EE00A20B2
:109F8000154900F0B7FD1548A02380F80A3344F4C2
:109F900008544FF4806344F00804036017B924F0B8
:109FA000040401E044F0040416B924F0020101E0C5
:109FB00044F002010648FFF7B5FF094B1A68012D6E
:109FC0000CBF42F4803222F480321A6003B0F0BD3C
:109FD00030000883C0810083E59E071000E100E0A7
:109FE0007C910083024841F20921FFF79BBF00BF2B
:109FF0004400088308B53C285CD8DFE800F01F5512
:10A0000021232527292B5B5B5B5B5B5B5B5B5B5BDE
:10A010005B5B5B5B5B5B2D2F31333537393B3D3F02
:10A0200041434547494B5B5B5B5B5B5B5B5B5B5BFE
:10A030005B5B5B5B5B5B5B4D4F515300002034E02F
:10A04000022032E0032030E004202EE005202CE046
:10A0500006202AE0072028E0182026E0192024E026
:10A060001A2022E01B2020E01C201EE01D201CE006
:10A070001E201AE01F2018E0202016E0212014E006
:10A08000222012E0232010E024200EE025200CE006
:10A0900026200AE0272008E0392006E03A2004E0E4
:10A0A0003B2002E03C2000E00120C9B2FFF786FD22
:10A0B000002008BD4FF0FF3008BD0220FFF7C8BAEE
:10A0C00010B50446FFF7F9FF01340444FFF7F5FF2C
:10A0D000001B0028FADB10BD0420FFF7B9BAFFF718
:10A0E000D9BA000008B9012202E0012802D10222F7
:10A0F000014B1A60704700BF0000058310B51C4B70
:10A100001C4A19681368C1F3423123F4FF63013913
:10A11000104623F00703184A062905D8DFE801F0A6
:10A1200013090E13131313001449116043F01003A5
:10A130000DE01349116043F0400308E0114911603C
:10A1400043F4806303E01049116043F4007303603B
:10A150000E4B12681A6013F0E7FE0D4B18684FF4AF
:10A160007A73B0FBF3F0BDE8104013F0C9BE00BF36
:10A17000C0810083B8810083BC0A0020002D31011A
:10A1800080BA8C0100751903005A6202B80A0020D7
:10A19000E0080020014B1868704700BFBC0A00208F
:10A1A000014B1868704700BFB80A0020104B82B0FE
:10A1B0001A680192019AC2F301720192019AA2B93E
:10A1C0001A680192019A22F080720192019A42F07B
:10A1D00000520192019A1A601A680192019A02F0E3
:10A1E00000620192019A002AF6D002B0704700BFC7
:10A1F000B8810083224B82B01A680192019AC2F39F
:10A2000001720192019A032A31D01A680192019ACF
:10A2100022F480220192019A22F080720192019A26
:10A220000192019A1A601A680192019A22F0405232
:10A230000192019A22F080720192019A42F04052FA
:10A240000192019A1A601A680192019A02F08062E2
:10A250000192019A002AF6D0094A12680192019AE5
:10A2600022F480220192019A22F080720192019AD6
:10A2700008B142F480220192019A1A6002B070473C
:10A28000B881008307B50120FFF7B4FF1D4B1A68A2
:10A290000192019A22F440420192019A42F48042D2
:10A2A0000192019A1A60184601990268154B914271
:10A2B000FAD11A680192019A22F47C720192019AF1
:10A2C00042F080020192019A1A601A680192019A82
:10A2D00022F007020192019A42F004020192019ACF
:10A2E0001A60094B094A1A6013F01EFE084B1868E1
:10A2F0004FF47A73B0FBF3F013F002FE03B05DF895
:10A3000004FB00BFB0810083B80A002000B0710BCD
:10A31000E0080020054B064A002814BF10461846E6
:10A3200043699B06FCD50160704700BF00000383B2
:10A33000000004832DE9F04F3F4C8DB091468046DC
:10A340000F469A466D4604F11002206861682B465C
:10A3500003C3083494421D46F7D120681860A388CF
:10A36000364CAB8006AD04F11003206861682E46C0
:10A3700003C608349C423546F7D1A3882068B380D1
:10A380003060FFF707FF2E4B2E4A18602E48B8F1B9
:10A39000010F18BF104603224262C66846F08001D2
:10A3A000C160D3F800B00A23BBFBF7F52C0A03FB0E
:10A3B0000BFB0134BBFBF7F7B5FBF4F8B7FBF5F586
:10A3C00003FB185508F1FF31B5FBF3F7032903FB35
:10A3D0001753E5B2C4F30724056018BF4FEA510CC8
:10A3E000446081620CA901EB430300F10C0233F8D5
:10A3F000181C33F8303C14BF0CF1FF3C4FF0000C3C
:10A40000C0F82CC0816543654723166083601188BE
:10A41000BDF8583021F003010904090C41EA090193
:10A4200021F00401194321F0380141EA0A0AA2F897
:10A4300000A00DB0BDE8F08F7C020D1092020D104F
:10A44000C00A0020000003830000048313B500232A
:10A45000044600934FF4E1310322FFF76BFF0CB980
:10A46000054B02E0012C04D1044B1A6842F00102B2
:10A470001A6002B010BD00BF4C0003834C0004837F
:10A4800040B909B10B4B07E00B4B0C491B889BB241
:10A49000136009E019B10A4B1B889BB207E0094B16
:10A4A00009491B889BB21360098889B25B1A136043
:10A4B000704700BF380F0183440E0183380E0183BB
:10A4C00038110183441001833810018310B5002333
:10A4D000934209D008B9054C02E0012802D1044C8E
:10A4E0002478CC540133F3E710BD00BF000300799A
:10A4F0000005007913B50C4611461A46034638B9D3
:10A500008DE80C0020460E22FEF770FE0E2009E0BA
:10A5100001280CD100230092204601931022FEF75F
:10A5200065FE102002B0BDE81040FEF789BE02B003
:10A5300010BD37B5069D0C461146079A38B90192F1
:10A54000204600950F22FEF751FE0F2008E001285B
:10A550000BD10192204600951122FEF747FE1120F3
:10A5600003B0BDE83040FEF76BBE03B030BD08B9A4
:10A570000F2002E0012802D11120FEF76DBE7047C6
:10A5800008B90F2002E0012802D11120FEF76CBEAD
:10A5900070470000044A054B002814BF10461846B7
:10A5A00001228264704700BF00000483000003831F
:10A5B000094B0A4A002814BF104618460022C368F7
:10A5C000C260426892B29BB242F002024260C36033
:10A5D00001238364704700BF0000038300000483ED
:10A5E000074B084A002818BF134614BF012000205B
:10A5F0009B6803F03F03022B01D100F0EBBB7047D7
:10A600000000038300000483134B144A002814BF86
:10A6100010461846BF221023C260802183600023A9
:10A6200003618361C16003604360C3604360836012
:10A63000C2608360C3600361C36143628362C362BB
:10A640004363C363036443648364C3640365436512
:10A6500083650366704700BF000003830000048326
:10A660000CB402B070470CB402B0704770470000E1
:10A67000054B064940220120C3F88020C3F8802101
:10A6800008701A60704700BF00E100E0C50A0020B2
:10A6900010B555F041FB074B1C7824B155F0ECFA8E
:10A6A0006FF0630010BD01221A7055F0E5FA2046E4
:10A6B00010BD00BFC40A00202DE9F3410D46174626
:10A6C00098469DF82060044610B109B102B12BB93B
:10A6D0004148424AF521FFF7C3FF5DE04B681A0786
:10A6E00003D03D483E4AFA2116E04268A3F110012A
:10A6F0008A4206D2009338483A4AFF21FFF7B0FF5A
:10A700004AE07B6823F00802102A08D0202B06D0EC
:10A710003148354A40F20511FFF7A2FF3CE0FFF750
:10A72000B7FF3249062000F0E5F9314BA02283F84B
:10A73000062340221A60396838792E4F15F0E2FC62
:10A74000012E0BBF314600213046012015F0C6FC1A
:10A7500000223A70A388CDF800800192A988286869
:10A76000226815F0DDFC002803DA2348234A802103
:10A7700007E0234B3A78A2B9013BFBD11E48214A9E
:10A780008821FFF76DFF204A13484FF48C71FFF7C3
:10A7900067FF1E4B00221A70FF2040B202B0BDE8D6
:10A7A000F08123686A681A48991811F8017C1949E0
:10A7B000012E14BF06460E468DE844000648164A90
:10A7C0004FF48F71FFF752FF6B68DF1B0F4B676011
:10A7D00000201870E1E700BF2C040D10EC020D10F2
:10A7E00032030D1056030D109B030D1071A60710B8
:10A7F00000E100E0C50A00201D040D10C0020D108C
:10A8000001000010D2030D1009040D10C40A00202D
:10A810002E030D102A030D10EC030D1070B586B039
:10A8200006460D46144602A8002110224FF020FFD4
:10A830000023009330462946224602ABFFF73CFF37
:10A8400006B070BD10B555F067FA1B4B1A7802F0D0
:10A85000FF041AB155F010FAFA202AE001221A700A
:10A8600055F00AFA154B5A6822F01E025A605A68CF
:10A8700042F013025A605A6822F01E025A605A6867
:10A8800042F003025A601C60DC620D4B1C600D4BF1
:10A890001C6023469A0002F1AA7200201060106426
:10A8A000094A02EBC30142F833000133102B486020
:10A8B000F0D140B210BD00BFC60A00200000530115
:10A8C000CC0A0020C80A0020D00A0020154B5A6884
:10A8D00022F01E025A605A6842F013025A605A6807
:10A8E00022F01E025A605A6842F003025A600022A7
:10A8F0001A60DA620C4B1A600C4B1A6013469A000D
:10A9000002F1AA72002010601064094A02EBC30130
:10A9100042F833000133102B4860F0D1054B18701A
:10A92000704700BF00005301CC0A0020C80A002075
:10A93000D00A0020C60A0020074A53789B0708D097
:10A94000064B196841F00D0119601B681360002067
:10A9500000E0FB2040B27047CC0A00200000530109
:10A960000E4B1A68D2070FD55A6822F01E025A60A1
:10A970005A6842F013025A605A6822F01E025A6066
:10A980005A6842F003025A60044B1A6822F001022E
:10A990001A601A68024B00201A60704700005301C9
:10A9A000CC0A00200F2811D80B4B00F5804253F839
:10A9B0002220D2050CD5DA6A012101FA00F01043F9
:10A9C000D862DA6A054B00201A6002E0FC2000E041
:10A9D000FF2040B2704700BF00005301C80A0020AA
:10A9E0000F2812D80A4B0122D96A824021EA0202BA
:10A9F000DA62DA6A074B1A60074A002342F83030FD
:10AA000002EBC0004360184600E0FC2040B27047F3
:10AA100000005301C80A0020D00A002003280FD8E4
:10AA2000094B1A6822F440721A601A6842EA00223E
:10AA30001A6000B918601A68044B00201A6000E020
:10AA4000FB2040B2704700BF00005301CC0A002039
:10AA50000F2810B526D839B30C68C4F30B0313B113
:10AA60001348F82105E04A68C2F30B022AB11048E6
:10AA7000FE21104A104B4FF0D3F9830003F1AA7363
:10AA80001C6012C921441964196841F4807119606D
:10AA90000A491C6841F8304001EBC0001B6C436060
:10AAA000104602E0FC2000E0F92040B210BD00BFDB
:10AAB00054040D103C040D10D8090D10D00A0020CC
:10AAC00008B555F029F90A4B5A6822F01E025A605F
:10AAD0005A6842F013025A605A6822F01E025A6005
:10AAE0005A6842F003025A6055F0C6F8002008BDCB
:10AAF0000000530170B5C6B25F2E04460D4617D84C
:10AB0000B1B155F009F906F01F066209012303FAF5
:10AB100006F66032084B43F82260084B43F8345085
:10AB200003EBC4040025656055F0A6F8284600E054
:10AB3000FE2040B270BD00BF00E100E0500B0020DD
:10AB400010B5044655F0E8F82060002010BD08B5A7
:10AB500055F092F8002008BD08B5002055F09CF88B
:10AB6000C01708BD08B555F07FF8C01708BD08B577
:10AB700000F18050FEF7CAFC002008BD08B50B4666
:10AB800011461A46FEF7D2FCC01708BD3C2808B58E
:10AB900008D80F2908D8FFF72DFA0028B4BFFD20E8
:10ABA000002002E0FE2000E0FF2040B208BD0020AF
:10ABB00070470020704713B503460C4651B13C283E
:10ABC0000AD868461946FFF757F99DF805302370F3
:10ABD000002002E0FF2000E0FE2040B202B010BDE5
:10ABE0003C2808B506D8FFF745F90028B4BFFD207A
:10ABF000002000E0FE2040B208BD3C2808B506D881
:10AC0000FFF736F90028B4BFFD20002000E0FE2049
:10AC100040B208BD3C2810B504460BD8FFF754F9E4
:10AC2000002809DB2046FFF73BF90028B4BFFD20D0
:10AC3000002002E0FE2000E0FD2040B210BD3C28D4
:10AC400010B504460BD8FFF73FF9002809DB204672
:10AC5000FFF730F90028B4BFFD20002002E0FE20FD
:10AC600000E0FD2040B210BD70B503460C4670B93F
:10AC70001F4B93F82020012A1D4601D0FEF70AFD44
:10AC8000FFF71BFA0123206085F8203017E0012828
:10AC900017D1174B93F84020012A1D4601D0FEF72B
:10ACA000FEFCFFF719FA0646FFF77AFA114BB0FBE4
:10ACB000F3F0B6FBF0F62660012385F84030002063
:10ACC00013E002280BD10A4B93F84020012A1D46BD
:10ACD00001D0FEF7E4FCFFF7FFF92060ECE706483F
:10ACE000064A8D21FFF7BCFCFF2040B270BD00BFBB
:10ACF000500E002040420F0049050D10D2040D10E7
:10AD00001AB1081A1060002000E0FF2040B270471E
:10AD1000012811D871B10B780C2B0DD8CB78022BF0
:10AD20000AD88B78012B07D8487803288CBF0020DD
:10AD3000012070470846704700207047124B37B516
:10AD4000302404FB00340546143461B101AA01210A
:10AD5000FFF796FB6269019B934213D3002D14BF4A
:10AD600011200F200CE001AAFFF78AFBA36862689C
:10AD7000D21A019B934205D3002D14BF10200E2040
:10AD8000FEF754FA03B030BDA40E002008B5074BFF
:10AD900093F8352022B19A6B12B10220D96B9047FB
:10ADA00001200021BDE80840FFF7C8BFA40E002025
:10ADB00008B5074B5A7922B19A6812B10220D968B6
:10ADC000904700200146BDE80840FFF7B7BF00BF2D
:10ADD000A40E002073B5124B1D5C0446DDB901A81A
:10ADE000FFF7AEFE6A4620462946FFF749FB0D4BAA
:10ADF000302202FB04339A69009B9A4207D10A4E23
:10AE0000335D23B1094B185D15F06FF83555019886
:10AE1000FFF79DFE01E000221A5402B070BD00BF92
:10AE2000040F0020A40E0020A00E0020060F00201A
:10AE300008B1012801D1FFF76DBA7047012873B539
:10AE400006460D46144618D8C9B1D2B1012101AA4F
:10AE5000FFF716FB0198844228BF04462946304676
:10AE60002246FFF733FB019B9C420AD1002E14BF00
:10AE700011200F20FEF7D0F903E0002002E0084681
:10AE800000E0204602B070BD07B500230128019301
:10AE900005D8012101AAFFF7F3FA019800E018464E
:10AEA00003B05DF804FB000010B5094C94F8353090
:10AEB00043B10120FFF7E8FF20B1A36B13B10120DC
:10AEC000E16B984701200146BDE81040FFF736BF0F
:10AED000A40E002010B5094C637943B10020FFF7A0
:10AEE000D3FF20B1A36813B10120E1689847002087
:10AEF0000121BDE81040FFF721BF00BFA40E0020D4
:10AF0000012870B5044637D8002935D01C4B3025B0
:10AF100005FB0033DA60012299605A71194B53F82E
:10AF200020502946FFF723FB20462946FFF728FB40
:10AF30002CB90E201449FEF78FF90E2004E01020E2
:10AF40001249FEF789F91020114EFEF765F9114BF1
:10AF50001149305701251D55FFF7CCFD2046FFF75D
:10AF600027FB335D0D4A59B2490903F01F039D4089
:10AF700042F82150002000E0FC2040B270BD00BF2C
:10AF8000A40E0020B0050D10B1AD07108DAD071057
:10AF9000A8020D10040F0020E1A5071000E100E059
:10AFA0002DE9F04190B080460E46FFF7B1FE002833
:10AFB00049D0274B274C302000FB08303146042273
:10AFC00001304FF031FB0FCC03AD0FC50FCC0FC5D7
:10AFD0000FCC377896F803C00FC5224610A800EBB7
:10AFE000870752F8040F236851682B60757857F86B
:10AFF00034EC03AB03C310A901EB450503AF35F8EF
:10B00000342C254655F80C0F696803C72989198027
:10B0100010A800EB4C0354F8160F33F8343CB17809
:10B020000390A088ADF8100010A800EB410118F1C2
:10B03000000031F8341C009118BF01207146FFF761
:10B0400079F9002000E0FC2040B210B0BDE8F081AA
:10B05000A40E002064050D102DE9F04104460F46B2
:10B06000FFF756FE08B9FC2532E030221A4E02FBEB
:10B0700004F506EB0508715D49BB40464FF0F8FA50
:10B080003946042208F101004FF0CEFA012373552E
:10B09000261C18BF01263046FFF7B6FA3046FFF7E8
:10B0A000D5F920463946FFF77BFF05460028DAD15F
:10B0B0003046FFF76FFA094B1D55094B1D55094BDB
:10B0C00053F8240014F002FF074B185500E0FD254B
:10B0D00068B2BDE8F08100BFA40E0020040F00207C
:10B0E000A00E0020B8020D10060F002001282DE947
:10B0F000F74305460C460FD871B1CB6863B10B69B5
:10B100004A69934208D38A69934205D30B681BB1FD
:10B110004A688B689A4204D2FC2040B203B0BDE872
:10B12000F083174830236B43C2180126167402F1CE
:10B1300014001C224FF078FAFEF7A8F8FDF7D2FFB2
:10B14000D4F80C802769A669D4F81490FFF728F882
:10B150000C4BCDF80090B0FBF3F041F2883202FBCB
:10B1600000F30193284641463A463346FFF7E1F99A
:10B17000284694E80E00FFF7BDF90020CDE700BF98
:10B18000A40E002040420F00052070470048704781
:10B19000C1050D1000487047B8050D100520704717
:10B1A0000020704730B50B4D0FCD8BB06C460FC4EF
:10B1B0000FCD0FC495E8030084E80300064B00A9F7
:10B1C0001944064A525843F8042B054A9342F6D1D3
:10B1D0000BB030BDC8050D1020300281E0CFFD7EE0
:10B1E00048300281034B044A1A60044A1A61002263
:10B1F0001A62704790B00083F00000E7C7000006B5
:10B200002B4B2C4A1A602C4A5A6040F2FF129A606B
:10B210002A4B1A6822F002021A601A6842F00202EF
:10B220001A601A6842F400621A605A6822F0020238
:10B230005A605A6842F002025A605A6842F4006248
:10B240005A605A6922F002025A615A695A615A696F
:10B2500042F400625A6110331A6822F002021A6046
:10B260001A681A601A6842F400621A6053F8042CD3
:10B2700022F0020243F8042C53F8042C43F8042C67
:10B2800053F8042C42F4006243F8042C53F8082CC1
:10B2900022F0020243F8082C53F8082C43F8082C3B
:10B2A00053F8082C42F4006243F8082C704700BFA2
:10B2B00000B100830FFFFF1838FFFFF9483002810B
:10B2C000104B04221A6010221A6100221A620E4BDF
:10B2D0001A6822F01C021A605A6822F01C025A6096
:10B2E0005A6922F01C025A611A6922F01C021A6182
:10B2F000DA6822F01C02DA609A6822F01C029A6076
:10B30000704700BF00B0008348300281044B054AFB
:10B310001A60054A1A6140F2FF121A62704700BFB4
:10B3200030B0008300FFFF0008FFFFF9034A40230D
:10B3300013601361024B00221A60704760B00083F3
:10B3400080B0008308B5FFF72DFFFFF74BFFFFF735
:10B3500057FFFFF7B5FFFFF7D9FFBDE80840FFF73C
:10B36000E5BF10B586B0089C0094099C0290248823
:10B3700003910492684602A904AA01940593FFF779
:10B380004DFA06B010BD000013B5064B0024009422
:10B39000186803212246234614F020F9204602B003
:10B3A00010BD00BF080F002037B5064D286838B122
:10B3B0000024009405212246234614F00FF92C6046
:10B3C00003B030BD080F002013B50A4B1A681C46A5
:10B3D00022B90948094997224DF024FA246813F04C
:10B3E0007FF80023024600932046012114F0F6F86E
:10B3F00002B010BD080F0020F0050D1008060D105A
:10B4000030B502289FB006D0032844D0012844D18B
:10B4100000F026F941E040222023029220490193C6
:10B4200001AA039346F072FE054608B1AE202DE056
:10B430001C4C019B84F889300320214602AA46F067
:10B4400065FE00B10295029B174984F88A3003AA71
:10B45000052046F05BFE1548011D46F097FE0021D1
:10B46000212204A84FF004F9002141220DA84FF039
:10B47000FFF80B4994F8892004A84FF0D5F80DA8DF
:10B480000B4994F88A204FF0CFF8AA2000F034F945
:10B4900046F07AFE01E000F0F9F81FB030BD00BFC1
:10B4A000C010002080100020E010002000110020BB
:10B4B0008010002030B5002485B0054602A9204642
:10B4C0000294ADF80C400CF0F1FC2A4602A80A499F
:10B4D00046F0E2FD094B009341F2883123462246B3
:10B4E000074814F053F8074B1860031B58425841A3
:10B4F000404205B030BD00BF60060D1009B5071011
:10B5000038060D10080F002010B5044646F05AFE0C
:10B5100003682046984710BD10B5104B1B683BB917
:10B520000F4C238801339BB2132B08D9002306E06C
:10B530009B68002BF4D098470028F1D010BD2380E1
:10B540002388084A0020D15CA17047F07BF9A378DA
:10B55000054A013BD15C0131D15410BD0C0F0020D4
:10B560005E1000206C0200206810002008B5054A1B
:10B570000548F3214FF05CF9044BAB2283F88D2092
:10B5800008BD00BF09080D1070060D1080100020C6
:10B5900037B5114C114A01910346207802AD02EBF8
:10B5A00080101946402245F8080D4FF03DF80C4B2D
:10B5B000694618680522002313F066FC012808D1AB
:10B5C00023780522013393FBF2F202EB82029B1AED
:10B5D0002370012003B030BD77100020180F002029
:10B5E000140F002010B541884B0B022B024601D0EE
:10B5F000072B30D1023B012B12D8C1F3432111F0AC
:10B60000080F14BF20231023CC0748BF103388072E
:10B6100044BF08339BB2490703D518339BB200E0FF
:10B620001023947914F0400F0CBF00210221D01890
:10B63000084404F03F0420F001000119074B21F0F9
:10B640000301891A12881B68511ADB6814FA81F108
:10B650009847012010BD002010BD00BF0C0F002036
:10B6600013B5084B00240094186803212346224692
:10B6700013F0B4FF044B1B6813B1204621469847D2
:10B6800002B010BD781000201011002013B500206A
:10B69000FFF742FF064B1C6812F022FF0023024610
:10B6A00000932046012113F099FF02B010BD00BFA6
:10B6B0007810002007B50D4B186847F031FF0020C7
:10B6C00047F06AFF0A4B0020197847F039F847F035
:10B6D000E9FE084B002218686946134613F058FD2E
:10B6E0000128F6D0002003B05DF804FB58100020BC
:10B6F00076100020140F0020014B83F88D00704756
:10B7000080100020014B1878704700BF5D100020AA
:10B71000014B1870704700BF5D10002037B5164C04
:10B72000206818B113F080FE00232360134D2868B1
:10B7300038B10024009405212246234613F04EFF21
:10B740002C600F4D286838B1002400940521224652
:10B75000234613F043FF2C600A4A1368144613B1C2
:10B760005B6803B19847084A00231360074A2360C7
:10B77000137003B030BD00BF140F002078100020FC
:10B78000641000200C0F0020101100205C1000201D
:10B7900037B5274D286818B9264B186012F0BAFD46
:10B7A00000210B464FF0FF32286813F0F1FC2248CD
:10B7B000002190224EF05CFF0024AE2C16D0AB2C62
:10B7C00014D01E4B694618684FF0FF32002313F067
:10B7D000DFFC012803D19DE80300FFF703FF164BB0
:10B7E00093F88D40AA2C01D0AF2CE6D1FFF762FF71
:10B7F00004F15203DBB2012B02D8FFF78FFF0AE0FE
:10B800000F4BAB2C1B6802D12BB1022001E013B10E
:10B8100001200021984700210B460A46286813F0B2
:10B8200033FB044B0020186012F074FD03B030BDF0
:10B83000100F00207C10002080100020140F00202A
:10B84000101100202DE9F743254B91461A78074641
:10B850000E469846002A3DD1224C23680BB9224B54
:10B860002360224D2B681BB1214D2A6882B906E066
:10B87000012013F0BFFB28600028F5D12AE0042046
:10B88000082113F0CDFA286010B31A4913F0A8FD6F
:10B89000194D2B682BB1194BC3F8009023685BB985
:10B8A0000CE0174A00921748C821012213F06EFEDF
:10B8B00028600028EFD10BE01B6823B9012388F82A
:10B8C0000030002007E03846314698470028F5D080
:10B8D000FFF724FFFF2040B203B0BDE8F08300BFB4
:10B8E0005C1000200C0F002050060D10100F0020DF
:10B8F000140F0020D0070D10781000201011002028
:10B9000019B50710DE070D102DE9FF413F4D2C68DA
:10B9100006461CB1204612F063FD06E03C4F384657
:10B9200046F034FD3B78022B01D1FF206AE04FF056
:10B9300004080195CDF800800294039435483649F7
:10B940004FF48062234612F0F5FB01280546ECD146
:10B95000324F384647F0C2FD3868314F20F4C020DE
:10B9600020F0200040F4805047F0DAFD284647F0F0
:10B9700013FE2C49204646F0A5FE2946204646F0F7
:10B98000DFFE294847F06EFD4246384621464EF01C
:10B990006FFE264BDFF8A8801978B970204646F074
:10B9A00051FF21460E2240464EF062FEBB78013B1D
:10B9B00018F80320013208F803201D4B1F6812F00D
:10B9C0008FFD0094024629463846234613F006FEB2
:10B9D000BEB1184B00934FF47A717143224623464F
:10B9E000154813F0D3FD154B0646186012F078FD8C
:10B9F0000094024629463046234613F0EFFD2046C8
:10BA000000E0304640B204B0BDE8F0817C10002078
:10BA10006210002091B70710F3070D105810002096
:10BA20005E1000207610002091B507106C020020F7
:10BA3000781000206DB50710F9070D106410002074
:10BA400068100020024BAF2283F88D200020704741
:10BA5000801000202DE9F843194C089E099D90465E
:10BA600094F8892089461F465AB118B104F1400163
:10BA70004EF0DAFDB9F1000F03D094F8893089F85F
:10BA8000003094F88A2052B1B8F1000F03D040463C
:10BA90000B494EF0C9FD17B194F88A303B70D4F8C9
:10BAA000801051B12EB1064B3046D3F884204EF0B1
:10BAB000BBFD15B1D4F884302B700020BDE8F883AD
:10BAC0008010002030B5BBB00546002141220DA8F2
:10BAD0004EF0CEFD04A8002121224EF0C9FD002425
:10BAE000012D8DF80E408DF80F4002D0022D39D176
:10BAF00036E00DF10E010DAA0DF10F030094019433
:10BB000004A8FFF7A7FF9DF80E20204604A946F0E1
:10BB100027FD9DF80F200AB320460DA947F0F2FA41
:10BB20009DF80F2002F0EF030A2B0AD002F0F70372
:10BB3000052B13D11EA80DA98DF8E0204EF074FD41
:10BB400006E052080DA81EA98DF8E02049F038FB48
:10BB500000201EA98DF8E40047F0EAFB47F0E2FF61
:10BB6000FFF7DCFD3BB030BD002008B501460A4AB6
:10BB7000FFF768FE002802DA08484EF059FE002060
:10BB8000FFF7C2FE002802DA05484EF051FE002001
:10BB9000BDE8084012F0BEBBC5BA071015080D106D
:10BBA0002F080D101FB5002404238DE818000294FF
:10BBB0000394094809494FF40072234612F0BAFA77
:10BBC000012808BF204604D005484EF031FE4FF052
:10BBD000FF3004B010BD00BF69BB071051080D1045
:10BBE0005C080D1008B5FFF72DFF002008BD000010
:10BBF00030B500238FB00B600193037803F0F0039E
:10BC0000102B04460D4607D103692BB94369002B5D
:10BC10000CBFF220F52046E0207A43B20B3342DB22
:10BC200004F1100001A9E26908F05EFA013039D090
:10BC3000237803F0F003102B019B28D194F82020E7
:10BC4000120700D55BB903940BB11B8900E00123F7
:10BC50000EA80593154B40F8303D02F0EFF8019A1D
:10BC60009AB9E36A13B120460121984701238DF860
:10BC70002C300EA829238DF82D300D4B40F8183D9F
:10BC8000099402F0DBF8F2200DE0128901E01B6854
:10BC90001A89E36A13B1204601219847019B2B6062
:10BCA000002000E0FD2040B20FB030BD69CB07108E
:10BCB000CDCC071030B50D4687B0114600F0CCFC56
:10BCC0000446A8B1019006A80C4B40F8183D684600
:10BCD0008DF80C5002F0B2F860B104F10C0008F0DD
:10BCE00015FB04F1100008F0ABF9204603F05EFCF0
:10BCF000002000E0204607B030BD00BFADC50710F2
:10BD000030B5044687B080B10190292306A88DF88C
:10BD10000D30084B40F8183D684602F08FF8054694
:10BD200020B9204600F0D4FC00E000E0284640B2F4
:10BD300007B030BDFFC707107FB5019006A88DF88A
:10BD40001430054B40F8183D68460391049202F008
:10BD500075F807B05DF804FB2FCC07107FB5019094
:10BD600006A8064B40F8183D68460391ADF8102030
:10BD700002F064F807B05DF804FB00BFADC807101F
:10BD80007FB5019006A8064B40F8183D6846039120
:10BD9000ADF8102002F052F807B05DF804FB00BFC8
:10BDA0001DC907107FB5019006A8044B40F8183D47
:10BDB000684602F043F807B05DF804FBD9C90710E4
:10BDC0007FB5019006A8044B40F8183D684602F084
:10BDD00035F807B05DF804FB1DCA071073B50026DF
:10BDE0000E600446007A43B20B330D461FDB04F1AC
:10BDF000140001A9E26908F077F9013016D0E36A6E
:10BE00001BB12046012132469847019B5BB908F0DF
:10BE1000A9FA94F908300B33A4BFF423237208F075
:10BE2000ABFAF42003E02B60002000E0FD2040B2DC
:10BE300002B070BDFFF7DCBE73B500230B60027863
:10BE400002F0F002102A05460E461BD10193104B5A
:10BE5000D88903F0A1FC044690B1284601A9FFF758
:10BE6000C7FE054618B1204603F0A0FB06E0019B83
:10BE70002360019B6360A081A0603460284603E0DA
:10BE8000FF2001E0FFF7B4FE40B202B070BD00BF7A
:10BE9000DA080D107FB588B1037803F0F003102B9A
:10BEA0000CD190F820301B0708D5019006A8054B4F
:10BEB00040F8183D6846039101F0C0FF07B05DF8F7
:10BEC00004FB00BF69CB07107FB5019006A8054BA6
:10BED00040F8183D6846039101F0B0FF07B05DF8E7
:10BEE00004FB00BFE5CA071070B586B015460A9C72
:10BEF0000AB9002020E090F82020920754BFC3F335
:10BF00008002012202F0FF0602B1A4B1019006A84E
:10BF10008DF814300A4B40F8183D6846039104959B
:10BF200001F08CFF40B9002CE3D016B1049B2360D4
:10BF300002E02560DDE7FA2040B206B070BD00BF28
:10BF4000C7CB071010B586B00DF10303059301AB05
:10BF50000391029000211846049308F037F9044633
:10BF60008DF8030068B9012202A9074801F03AFFE1
:10BF70002146049808F05CF9049808F0C7F99DF888
:10BF8000030040B206B010BD59CD0710D36811B9F7
:10BF9000FA21197004E000201870536809681960CC
:10BFA000906808F09FB9F8B5044600260D46466033
:10BFB00008F0D8F9257208F0DFF9E36A677866704F
:10BFC0001BB12046042132469847E36A1BB1002189
:10BFD00020460A469847E36A1BB120460221002208
:10BFE0009847236923B104F11000002108F058F8A4
:10BFF000636923B104F11400002108F051F8012F06
:10C0000002D0033F012F1ED894F8203023F0040201
:10C0100003F0040384F8202003F0FF029BB9A36A15
:10C020001D71A36A1E68A26208F09CF994F9083099
:10C030000B33A8BF257208F09FF906F10C00BDE88C
:10C04000F84008F04FB9F8BD2DE9F04116461F46FB
:10C05000BDF81880054608B1036923B93046BDE82C
:10C06000F04108F033BA114BD88903F095FB044630
:10C070000028F3D00660466007B13F68A760A4F8C7
:10C080000C80214605F11000368908F009F80146B8
:10C0900020B12046BDE8F04100F078BEEB6A13B154
:10C0A000284632469847BDE8F08100BFDA080D10F7
:10C0B000F8B50F4614460546002830D00369002B1A
:10C0C0002DD011890420002208F026FA064630B34C
:10C0D000214608F009FB18B1304608F0F7F91EE0D8
:10C0E000104BD88903F058FB04460028F4D00E4BBF
:10C0F000266066601B69A3603B7CA381214605F135
:10C100001000368907F0CCFF014618B1204600F038
:10C110003DFE04E0EB6A13B1284632469847002002
:10C12000F8BD00BFDA080D10001A002010B54468F1
:10C130000146204603F064FF2046094903F062FFF0
:10C140002046084903F061FF20460749022203F018
:10C1500064FF20460549BDE8104003F059BF00BF09
:10C16000FBC4071063C50710A1C40710A7BF0710C1
:10C17000F8B5044680B3806A20B10271A36A1F68D3
:10C180000C3700E00746237803F0F003102B03D1AF
:10C1900012B92046FFF7CAFF94F82030002503F0BB
:10C1A000040623F0040384F82030A562657008F0CB
:10C1B000D9F894F908300B33A8BF257208F0DCF8E1
:10C1C000E36AF6B21BB120460221002298472EB93D
:10C1D000384608F087F801E0FA2000E0002040B27D
:10C1E000F8BDF8B5826A90F820309168D5680446A9
:10C1F000406A13F0020FC0EB05050144606808BFF8
:10C20000177C137C426F0CBFC7F3800701274FF6E2
:10C21000FE76B5F5803F26BF43F002034FF6FF756B
:10C22000ADB2B242FFB209D892B2AA4206D217B159
:10C2300015466AB102E043F0020315462A4608F0AB
:10C2400005FC431CDBB2012B06464CD897B100E03D
:10C25000F926A36ADB689D420CD2E36A1BB1204633
:10C2600003212A46984794F8203043F0100384F8BD
:10C2700020300EE063685A6FB2F5405F03D9B3F81F
:10C280007830202B05D9E36A1BB1204603212A46CA
:10C290009847BEB9636A1D44A36A6562DA6895422D
:10C2A000324600D01FB1DD606262012500E03546F4
:10C2B000606808F039FE10F10B0F03460FDB043005
:10C2C00016D10CE073B201330DD167B9606808F084
:10C2D0002BFE10F10B0F034601DB021D1FD1A26ADA
:10C2E0000021D16019E0A36A0022DA60334614E02D
:10C2F000ADB1A36A1D681E710023A362637008F0CC
:10C3000031F894F908300B33A8BF267208F034F8DE
:10C3100005F10C0007F0E6FF01E01E46E9E700200A
:10C32000F8BD00002DE9F047836A44681B7A03F0EA
:10C330000207032B054603F00109FFB25BD0B9F1F8
:10C34000000F05D0237E5A1F012A54D9082B52D042
:10C350004FB1B4F81E8008F010081FFA88F3002BC4
:10C3600049D1984600E0B846237E012B07D12046EC
:10C37000002103F050FEB8F1000F1CD11FE0B9F10D
:10C38000000F07D02046002103F03CFE204600218C
:10C3900003F041FE1FB12046002103F036FEB8F144
:10C3A000000F0CD0002120460A4603F036FE20463E
:10C3B000002103F02DFE204604F07CF804E0204626
:10C3C00049463A4604F013F90646E0B143B2013358
:10C3D00019D195F820309B0714D4AB6A93F809A0C3
:10C3E000BAF1000F3FD1B8F1000F0CD0204604F095
:10C3F00091F9564607E02046002103F001FE4FF078
:10C400000108B1E7F926AB6A1C681E710023AB6214
:10C410006B70CEB9B8F1000F06D0EB6A6E601BB13D
:10C420002846042132469847B9F1000F05D0EB6A3F
:10C430001BB1002128460A4698472FB1EB6A1BB171
:10C44000284602210022984707F08CFF95F9083012
:10C450000B33A8BF2E7207F08FFF04F10C0007F01A
:10C4600041FF002012E01FB120460A4903F0CDFD34
:10C4700001222046084903F0D0FD2046074903F079
:10C48000C7FD2046294603F0BBFDFF2040B2BDE8B2
:10C49000F08700BF63C50710A1C40710A7BF07102E
:10C4A00010B54378012B044602D1FFF79AFE0AE04B
:10C4B000042B08D1836A1BB15A7A0AB1013A5A7225
:10C4C0002046FFF72FFF94F82020D30613D563688A
:10C4D0008BB1596FB1F5405F0DD9B3F87830202B8F
:10C4E00009D8E36A22F0100284F820201BB120460C
:10C4F000022100229847002010BDF8B515461F46BE
:10C50000064648B3046954B90AB9002427E008462E
:10C51000118903F028FD284607F0D8FF1FE043B13A
:10C5200007F020FF96F908300B33A8BF377207F0E9
:10C5300023FF0DB12F8900E02F4606F11000294698
:10C5400007F0AEFD044648B9F36A002BDDD0304653
:10C5500021463A46984702E0FA2400E0FF2460B200
:10C56000F8BD38B54378012B0446154602D1FFF7D4
:10C5700038FE03E0042B01D1FFF7D4FE63689BB1C2
:10C580005A6FB2F5405F0FD9B3F87830202B0BD833
:10C5900094F8203023F0100384F82030E36A1BB1B4
:10C5A000204602212A469847002038BD38B500238E
:10C5B000056803716B680446002B35D12B7803F0B6
:10C5C000F003202B0FD0402B02D0102B25D11BE0E5
:10C5D000007A03F0A9FB686022685068F8B11C4932
:10C5E00003F038FB1BE005F0E7FE68602268536843
:10C5F000ABB112781749222A04BF01221A742268AB
:10C60000506805F0BFFE0AE004F062F96860206837
:10C61000436823B1FFF78AFD01E0FA2303E02368B2
:10C620005B680BB9FF232371236853B107F09AFEAF
:10C63000236893F908200B32A4BF22791A7207F0FD
:10C640009BFE2068BDE838400C3007F04BBE00BFB1
:10C65000B1C0071049C007101C4B70B50546188AB9
:10C660000E4603F099F80023044660B30372057088
:10C67000436005F0F000202803D0402801D01028A6
:10C680001CD104F110051021284607F0BBFC01461F
:10C69000A0B904F10C0007F099FD18B1284607F085
:10C6A000CFFC0BE04FF0FF3260616070A261E66288
:10C6B000A0626062E06184F8200004E0204602F09D
:10C6C00075FF002070BD204670BD00BFDA080D1058
:10C6D00010B504460C3007F019FE0023E360204635
:10C6E000BDE8104002F062BF37B5036904460BB3E2
:10C6F00004F11005284601A907F04EFD013014D0C1
:10C70000237803F0F003102B0BD1019D002DEFD007
:10C71000606810B1298903F026FC284607F0D6FE90
:10C72000E6E7019800F032FBE2E7284607F088FCD4
:10C73000002323616369D3B104F11405284601A9DC
:10C7400007F02AFD01300DD0019D2846FFF7CCFFF0
:10C75000686818B103F0DEFF00236B602846FFF71E
:10C76000B7FFE9E7284607F06BFC0023636103B0DD
:10C7700030BDF8B5436906460F461546002B39D043
:10C780000078F16AFFF768FF0446002834D047605C
:10C79000FFF7CCFC257206F11400214607F080FC5F
:10C7A000054600B365680021284603F029FC2846A9
:10C7B000002103F027FC2846002103F026FC00217D
:10C7C0000A46284603F029FC28460021002503F0EC
:10C7D0001FFC04F11000656007F032FC2561204663
:10C7E000FFF776FF08E0F36A3BB1304629462A4658
:10C7F000984702E0FA2500E0FF2568B2F8BD38B599
:10C8000004460068437813F0FD0F08D0032B03D1D2
:10C8100090F820305B0702D4FB23237131E0002520
:10C820002571FFF761FF23685868F0B11A7802F0AC
:10C83000F002202A11D0402A0CD0102A12D1042252
:10C840005A700323237223689C622068BDE8384035
:10C85000FFF768BD03F052FA04E0C5612368586829
:10C8600005F094FD236800225A602068C36A13B162
:10C8700000210A4698472068C36A13B102210022AA
:10C8800098472368DB6883B107F06CFD236893F950
:10C8900008200B32A4BF22791A7207F06DFD2068C0
:10C8A000BDE838400C3007F01DBD38BD10B5036839
:10C8B0001A7A51B20B31044601DA02711AE0FA22F7
:10C8C00002715868B0B11B7803F0F003202B0CD034
:10C8D000402B06D0102B0DD1A168A28903F084FA59
:10C8E00007E0A16803F0A4F903E0A168A28905F0BC
:10C8F00025FC2071236853B107F034FD236893F9B8
:10C9000008200B32A4BF22791A7207F035FD206887
:10C91000BDE810400C3007F0E5BC000010B503681E
:10C920000446586808B9F22317E01A7802F0F002BA
:10C93000202A08D0402A02D0102A37D109E0A16865
:10C9400003F07FF903E0A168A28905F0EBFC2071F8
:10C950002CE05A78032A02D1F723237126E00AB18A
:10C96000F623FAE71846FFF7E1FB2368A168586849
:10C97000A289184B03F0BEFF2071B8B923680321C8
:10C9800093F820205970236812F0020F93F82020AA
:10C9900005D042F0040283F82020FB23DDE722F0DB
:10C9A000040283F8202023689C6210BD236853B1E1
:10C9B00007F0D8FC236893F908200B32A4BF227932
:10C9C0001A7207F0D9FC2068BDE810400C3007F05F
:10C9D00089BC00BF71C1071010B503681A7802F056
:10C9E000F002202A044604D1586805F0C3FC002355
:10C9F00000E0FA232371236853B107F0B3FC2368E6
:10CA000093F908200B32A4BF22791A7207F0B4FC04
:10CA10002068BDE810400C3007F064BC70B50368B6
:10CA20001A7A51B20B31044601DA027144E0F52260
:10CA30000271586800283FD01A7802F0F002102ADC
:10CA400038D15B78002B37D1067E0EB1FA2332E065
:10CA5000FF2103F00DFA054608B9FF232BE02068FB
:10CA6000036923B1103007F0EBFA23681E6100233D
:10CA700020682371436923B91430102107F0C2FAEA
:10CA8000207194F9043073B9236802225A70236824
:10CA90005D602168486803F0B3FA2368104958685C
:10CAA00003F0B9FA08E0284603F004FD23680022E9
:10CAB0005A6001E0F1232371236853B107F052FC5F
:10CAC000236893F908200B32A4BF22791A7207F069
:10CAD00053FC2068BDE870400C3007F003BC00BF79
:10CAE00073C7071010B503681A7A51B20B310446A8
:10CAF00001DA027125E0F5220271586808B31B784B
:10CB000003F0F003202B0FD0402B1AD1A36813F1B0
:10CB1000080201D0996819B9196803F0EBF80FE021
:10CB2000196803F09AF80BE0A3689A68196812B9BB
:10CB300005F0F4FB04E003F108029B8905F0CEFB4D
:10CB40002071236853B107F00DFC236893F9082086
:10CB50000B32A4BF22791A7207F00EFC2068BDE8E0
:10CB600010400C3007F0BEBB70B5002303710368A2
:10CB70005A6804466AB92368FBB107F0F3FB2368DF
:10CB800093F908200B32A4BF22791A7207F0F4FB44
:10CB900013E01B7803F0F003102BECD18568B5F59A
:10CBA000803F236834BFAEB24FF6FF7658683146F7
:10CBB00003F0D9F9AD1BF2D1DDE72068BDE8704084
:10CBC0000C3007F08FBB10B503681A7A51B20B31E5
:10CBD000044601DA027119E01A7802F0F002102A14
:10CBE00012D15A780AB1FB230FE0596851B10121E3
:10CBF00059700368986203685A620068BDE8104083
:10CC0000FFF7EFBAF52300E0FA23237107F0AAFB40
:10CC1000236893F908200B32A4BF22791A7207F017
:10CC2000ABFB2068BDE810400C3007F05BBB10B5D3
:10CC300003685B680446002B33D0017C826809B12D
:10CC40001B6800E05B6813600023237123681A7877
:10CC500002F0F002202A0AD0402A02D0102A22D163
:10CC600012E0227CEAB15B68E2681B7C0AE0227C6D
:10CC70005B6812B1E2685B8A04E01A7C520710D547
:10CC8000E2689B8A13800EE0227C5B6812B9197EF1
:10CC9000012906D9E1680AB15B8B00E09B8B0B8010
:10CCA00001E0F5232371236853B107F05BFB236890
:10CCB00093F908200B32A4BF22791A7207F05CFBAB
:10CCC0002068BDE810400C3007F00CBB10B50446DE
:10CCD0000068426843785AB1027802F0F002102AE4
:10CCE00006D1227A032A01D0022B01D0032B01D1D5
:10CCF000F52302E0012B1AD1FB23237107F032FB4D
:10CD0000236893F908200B32A4BF22791A7207F026
:10CD100033FB2368CBB107F025FB236893F9082088
:10CD20000B32A4BF22791A7207F026FB0DE0D3075D
:10CD300001D5FFF7D9FC236804225A7023689C624E
:10CD40002068BDE81040FFF7EDBA2068BDE810404C
:10CD50000C3007F0C7BA000037B50023C568009350
:10CD60000446234603C8084A02F048FB2870E368DB
:10CD700093F90030053305D0A06803B0BDE830401A
:10CD800007F0B0BA03B030BD8DBF071010B5044630
:10CD900058B1006820B107F099FB0023636023605D
:10CDA0002046BDE8104002F001BC10BD10B504469D
:10CDB000006808B107F08AFB00236360236010BDA0
:10CDC00070B5044600680E46154608B107F07EFBB4
:10CDD00000200146022207F09FFB206010B960602E
:10CDE000FF2006E0466023681D815D812368636043
:10CDF000002040B270BD10B520B1C46902F0D6FB6E
:10CE00002046F9E710BD00002DE9F74F064615460C
:10CE1000084699460BB9CA2077E00023C9F80030CC
:10CE200016B909B9C82070E01DB16B6833F0020271
:10CE300024D140B14DF013F84FF6FE73421E9A42D2
:10CE400080461DD800E080467EB1304601A93DB144
:10CE50002B685A0704D505F035FE0028E2D04AE0D9
:10CE6000FFF770F80028D6D145E025B12B68DB0725
:10CE700001D5019606E0264B019303E0CC2044E067
:10CE8000C92042E000274FF0300A224B588B02F0B5
:10CE900083FC044668B3524600214DF0E9FB019B38
:10CEA00063624FF0020A102384F821A084F8203036
:10CEB0001FFA88F000F0FEFF04F1200B6084C4F834
:10CEC00004A01DB1AB68A360EB68E3604EB104F150
:10CED00030003A46A06131464DF0A6FBA36900221E
:10CEE000DA5510232361C4F814B00020C9F80040BB
:10CEF0000BE0CB2009E030464EF0DCF9B0F5807F46
:10CF0000074688D807F1310ABFE703B0BDE8F08FC4
:10CF10007F000001DA080D101F2808D81423054AE5
:10CF20004343D018D358002B08BF0020704700207F
:10CF3000704700BF181100202DE9F843804689464C
:10CF4000002407F00FFA1423154E63439D59F5B9D9
:10CF5000F71846F8038007F00FFA7D603D817D8168
:10CF600098F8003003F0F003102B04D119F1000100
:10CF700018BF012100E00121142303FB04660023F4
:10CF8000B181F381337473742046BDE8F8830134B2
:10CF900007F0F2F9202CD4D14FF0FF30BDE8F88330
:10CFA000181100202DE9F04F8DB09A460590884663
:10CFB0009146002306AF0022DA550133082BF9D140
:10CFC00008AB02F120006E4601320393082A4FF0AD
:10CFD00000038355F4D10DF1280B002503F80B5005
:10CFE0000133082BF7D12C46059EB44268DA07F0CE
:10CFF000B9F9014620460291FFF78EFF029928B148
:10D000008689049642684389C68903E006460490EF
:10D010000346024608460292019307F0ADF9029AD0
:10D02000019BB8F1000F18D04FEA541C04F01F0008
:10D0300058F82C100141C9070FD512B91BB2002BAB
:10D040000BDD0CA901EB8C02012303FA00F052F86E
:10D05000183C184342F8180C0135B9F1000F15D0EF
:10D06000610904F01F0259F821301341D8070DD58A
:10D07000049B5BB10CA800EB8101012303FA02F2CF
:10D0800051F8103C1A4341F8102C0135BAF1000F49
:10D0900014D0610904F01F025AF821301341DB0754
:10D0A0000CD55EB10CAB03EB8101012303FA02F254
:10D0B00051F8083C1A4341F8082C0135013493E734
:10D0C00097E80300169B039E83E8030096E803009D
:10D0D000179B189E83E803009BE8030086E8030083
:10D0E00028460DB0BDE8F08F2DE9F04100F10804AD
:10D0F0000646D0F804800068B0CCFFF70DFF00288A
:10D1000000F08B80B8F1060F69D040F6FF739845A8
:10D1100004D0B8F1000F40F084804AE0202C0ED0FB
:10D1200004DC042C0BD0082C7BD108E041F2060370
:10D130009C4216D041F20A039C4222D071E0032F98
:10D140006DD90368002B6AD05A68002A67D02B6813
:10D15000117A13B10C43147211E021EA0404147221
:10D1600060E0072F5BD90368002B58D069682868F6
:10D170004FF47A72B1FBF2F102FB0012DA61002384
:10D1800050E0032F4BD90368002B48D05A68002A7F
:10D1900045D01B7803F0F003202B42D12B68117C83
:10D1A0001BB141F001011174E9E721F00101117493
:10D1B00038E0012C0AD0022C33D1032F2FD9036879
:10D1C0006BB35B685BB32A689A72D8E7032F26D9E2
:10D1D000036823B35B6813B32A685A72CFE7032F3F
:10D1E0001DD90368DBB15A68CAB11B7803F0F0039C
:10D1F000102B16D1012C05D0022C12D12B68C2F8AD
:10D20000A030BCE72B68D18B1BB141F04001D1832A
:10D21000B5E721F04001D18304E0092302E01623A1
:10D2200000E06D233375B069BDE8F04107F05AB8EE
:10D230001F2808B505D94CF017FE0923036000200C
:10D2400008BD1423034A4343D018D358002BF2D00F
:10D2500008BD00BF181100202DE9F84F0F46044605
:10D2600000287DD08569002D0CDA07F07BF8A569D0
:10D27000002D034604DA0FB9013DA56118466BE0A5
:10D2800007F07AF82846FFF7D3FF0446002867D056
:10D2900007F068F80646042F12D8DFE807F0030607
:10D2A0000A0C0F006389013301E06389013B63814C
:10D2B00006E0012300E00023A38101E00123E381D4
:10D2C000637C002B47D005F01F0B4FF001096F095D
:10D2D00009FA0BF9234B1D68002D3CD0DFF888803C
:10D2E0006B69D8F800A053BBB4F90A20002A07DD07
:10D2F000AB682BB153F8273043FA0BF303F001036B
:10D30000A28952B143B9EA683AB152F8273043FAD8
:10D310000BF303F0010300E00123E28942B143B9BA
:10D320002B6963B153F8273019EA030F01D106E0E6
:10D330002BB101236B6105F1180006F0D3FF3046D5
:10D3400007F01AF807F00EF8D8F800309A450646AC
:10D35000C0D12D68C0E73046BDE8F84F07F00CB8E3
:10D36000BDE8F88F14110020981300202DE9F04F2C
:10D370008BB0002301919046ADF80E30FFF758FFB7
:10D38000044668B1006890F820309A070BD5B4F9CC
:10D390000A30002B07DC0B2525744CF065FD056079
:10D3A0004FF0FF308EE004A9FEF718FD054690B15E
:10D3B00023681B7803F0F003102B05D05F27277438
:10D3C0004CF052FD07607CE04542102D51D83F4B98
:10D3D00053F825504EE0049890F8203043F00803AD
:10D3E00080F820300121FFF7A7FD431C074608D134
:10D3F00017250498FEF784FC25744CF035FD056074
:10D400005FE01423DFF8C8B003FB00FA0BEB0A0659
:10D4100006F0A8FF049B71899A6901398A1A728102
:10D420009F6106F0A9FF019B002B48D0049805A935
:10D430000DF10E022B46FEF77FFC8146F0B10498F9
:10D44000FEF75EFC776835817560357406F08AFFFB
:10D450004BF80A5006F090FF17B1384607F036F83F
:10D46000C9F10009B9F1100F03D8184B53F829502E
:10D4700000E005252574002D92D08EE710238DF84D
:10D480001830BDF80E0002238DF8193000F012FD9F
:10D49000059BADF81A004946082208A807934DF0ED
:10D4A000E7F8D8F800209DF8183001989A4288BF14
:10D4B000C8F8003006A9D8F800204DF0B5F80023D0
:10D4C000237438460BB0BDE8F08F00BF74080D1010
:10D4D0001811002073B50E46FFF7AAFE0446C0B12E
:10D4E00002AD7368708845F8043D00F0E6FC2946FB
:10D4F00002462068FEF732FC70B1404210289ABF05
:10D50000074B53F820500525257415B14CF0ACFCA1
:10D5100005604FF0FF3000E0207402B070BD00BF26
:10D5200074080D10F8B5FFF783FE0446D0B100680B
:10D5300038B1077807F0F007B7F110035F425F4199
:10D5400000E00746FEF7DCFB054670B14542102DB2
:10D550009ABF104B53F825500525257415B14CF092
:10D5600083FC05604FF0FF30F8BD66682081606085
:10D57000207406F0F7FE256006F0FEFE304646B148
:10D580001FB106F0A3FF2846F8BDFFF7FFFB3846A2
:10D59000F8BDF8BD74080D1073B50E46FFF748FED0
:10D5A0000446F8B173781BB90068FEF7FBFB0BE08B
:10D5B00002AD7368708845F8043D00F07EFC294692
:10D5C00002462068FEF7DCFB78B140B240421028EA
:10D5D0009ABF074B53F820500525257415B14CF020
:10D5E00043FC05604FF0FF3000E0207402B070BDD6
:10D5F00074080D1038B50D46FFF71AFE0446A0B1A9
:10D60000FE2DD4BF25EAE571FF210068C9B2FEF7FF
:10D61000D7FBC0B123681B7803F0F003102B07D0B1
:10D620005F2525744CF020FC05604FF0FF3038BDBD
:10D63000404210289ABF054B53F820500525257409
:10D64000002DF2D0EEE7207438BD00BF74080D1035
:10D650002DE9F04F8BB00025019190461F46DDF873
:10D6600054A00495FFF7E4FD0446002800F0C980AB
:10D6700063680BB104934AE03E0704D4236893F82F
:10D68000203098070FD5B4F90A30002B0BDC25B1F8
:10D6900020682946FEF7FEFB21E00B2525744CF09F
:10D6A000E3FB0560ADE02068037803F0F003102B86
:10D6B00004A902D1FEF7BEFB01E0FEF7BDFB20B3DB
:10D6C0004FFA80F975B120682946FEF7E3FB19F19E
:10D6D0000E0F04D1002120680A46FFF7BDFD00238C
:10D6E000237491E0C9F10003102B9ABF634A52F8EA
:10D6F00023600526267416B14CF0B6FB066019F1BE
:10D700000E0518BF01256842B4E0049B63602368DE
:10D7100001991B7803F0F003102B049B14BFD3F87E
:10D7200000B09B462389BBF80890C3EB09091FFA98
:10D7300089F9C84594BF1FFA88F64E4629443246F7
:10D74000584606F0FEFF2068027802F0F002102A28
:10D7500035440FD1B8EB06080CD09BF80D30D90733
:10D7600008D4B4F90A30002B04DD17F0010301D10D
:10D770009B4606E0149B13B1BAF1000F46D14FF05F
:10D78000010B17F0010300931ED12268117801F0FC
:10D79000F001102909D1C6EB0901002905DD049A21
:10D7A00062602289164426810EE00026666026818A
:10D7B0001278049802F0F002102A02D106F086FED8
:10D7C00001E0FFF7E3FA0496BBF1000F3FF450AF1E
:10D7D00055B12068037803F0F003102B04D1009BAF
:10D7E00013B92946FEF756FB00232374BB060BD55D
:10D7F00023681B7803F0F003202B14BF284648460B
:10D8000038E04FF0FF3035E0284633E0102A08D1E9
:10D8100005A90DF10E020023FEF78EFA0DF1140B8F
:10D8200005E0049B9A89ADF80E2003F1080B102344
:10D830008DF81830BDF80E0002238DF8193000F075
:10D8400039FBADF81A00DBF80030079308A8002177
:10D8500008224CF00DFFDAF800209DF818301498DB
:10D860009A4288BFCAF8003006A9DAF800204CF0C6
:10D87000DBFE84E70BB0BDE8F08F00BF74080D102D
:10D8800013B5002400940194FFF7E2FE02B010BD2E
:10D890002DE9F04385B080460E46174699460C9C0C
:10D8A000FFF7C6FC054610B94FF0FF303AE00268BA
:10D8B000137803F0F003102B06D1404631463A4668
:10D8C0004B4600F035F82DE00023BFB201930093E2
:10D8D0002CB163686088029300F0EFFA01E00294D3
:10D8E0002046ADF80C00314668463A46FFF768FA24
:10D8F000044620B928686946FEF7E6FA04466846F9
:10D90000FFF754FA63B25B42102B9ABF074A52F8F2
:10D91000236005262E7416B14CF0A6FA0660002C82
:10D92000C2D1384605B0BDE8F08300BF74080D10C1
:10D930002DE9FF4180460F4616461D46FFF778FC4D
:10D94000044610B94FF0FF3034E003681B7803F051
:10D95000F003102B09D00023009301934046394671
:10D9600032462B46FFF794FF24E004A8002240F83B
:10D97000042D15F0100F0CBF0123032315F0080F21
:10D980000CBF00250425009032462B432068394601
:10D99000FEF7AAFA4342102B9ABF084A52F82350C6
:10D9A00005250646257415B14CF05EFA0560002E7B
:10D9B000C8D1039804B0BDE8F08100BF74080D1011
:10D9C000022938B507D0032902D0012920D10DE062
:10D9D0004020D1B204E0882A14BF20202120002159
:10D9E000184AFEF767F90446C8B906E0102000217E
:10D9F000144AFEF75FF9044618B94CF035FA69236A
:10DA000009E090F8203043F0080380F8203006E069
:10DA10004CF02AFA162303604FF0FF3038BD204641
:10DA20000021FFF789FA431C054618BFA06106D103
:10DA30002046FEF765F94CF017FA172303602846D5
:10DA400038BD00BF59D207100023FFF771BF000097
:10DA50002DE9F04F97B009AF079700970BAF0697E6
:10DA600001970DAF029781460C4615461E46DDF81C
:10DA700080800597FFF796FA8346002840F0FB80E8
:10DA8000B8F1000F07D0D8F8003023B9D8F8043027
:10DA9000002B00F0F080002115A80F911091119437
:10DAA0001295139614910FAF06F090FB18B14CF03D
:10DAB000DBF90C23CCE006F055FC7D4A13680F938C
:10DAC00003B15F607B4B17601A6801321A6006F081
:10DAD00053FC4FF0000ACA4538DA4CB14FEA5A11EC
:10DAE0000AF01F0254F8211041FA02F2D30715D4AC
:10DAF0004DB14FEA5A110AF01F0255F8211041FAB0
:10DB000002F2D7070AD4F6B14FEA5A110AF01F02FF
:10DB100056F8211041FA02F2D00714D506F022FC83
:10DB200083465046FFF7F8F9074630B1417C013192
:10DB30004174584606F020FC05E0584606F01CFCEF
:10DB40004FF0FF3B2AE00AF1010AC4E709AA0BAB38
:10DB50000DAF009201930297484621462A4633466C
:10DB6000FFF720FA8346002840F09B80B8F1000FB1
:10DB700000F09580D8F80410D8F800004FF47A73BC
:10DB800001F5FA7191FBF3F103FB0011002908BFC5
:10DB9000012115A806F04CFBCA4607464FF00008C5
:10DBA000D04538DA4CB14FEA581008F01F0154F84C
:10DBB000200040FA01F1C90715D44DB14FEA5810C1
:10DBC00008F01F0155F8200040FA01F1CA070AD4F5
:10DBD000F6B14FEA581008F01F0156F8200040FA3D
:10DBE00001F1CB0714D506F0BDFB01464046049178
:10DBF000FFF792F9049930B1437C33B103F1FF3E52
:10DC000080F811E001E04FF0FF3B084606F0B4FB5E
:10DC100008F10108C4E706F0A5FB0F9B0BB11099B2
:10DC2000596023490A680DF13C0E724518BF1099DE
:10DC30000B60204B19680131196006F09DFB15A897
:10DC400006F064FBBBF1000F06DA4CF00DF9092376
:10DC500003604FF0FF3027E001370CD009AB0DAA6D
:10DC60000BAF009302920197484621462A4633465D
:10DC7000FFF798F9834624B1079F97E8030084E8EB
:10DC8000030025B1069F97E8030085E8030026B14D
:10DC9000059F97E8030086E80300584604E05946CC
:10DCA00077E7CA46002779E717B0BDE8F08F00BFD5
:10DCB00014110020981300202DE9F04188B0064689
:10DCC0000F4690461D46FFF7B3FA044640B32DB900
:10DCD0000E2505744CF0C8F8056021E00E9B0495F4
:10DCE00000258DF8185001960297CDF80C80059309
:10DCF00003680E480C3301A90122079300F072F863
:10DD00002946079806F094FA9DF81850257415B125
:10DD10004CF0AAF80560003518BF0125684201E003
:10DD20004FF0FF3008B0BDE8F08100BFE9D0071028
:10DD300007B5184B1B6813B1174A10689847174866
:10DD400001A904F0E5F8019B002BF8D01A78042A09
:10DD5000F5D8DFE802F00307181814009868036884
:10DD60000430EBE7D968986891F8312012F0180F69
:10DD700002D005F007FD09E004F098FD06E09A687E
:10DD8000D8689047DBE79A68D8689047019801F017
:10DD90000DFCD4E7A4130020A01300209C13002046
:10DDA000F8B50E4D2B6806460F4693B10C4B988A7A
:10DDB00001F0F2FC044670B1012303708660C76075
:10DDC0002146284606F06CF930B1204601F0EEFB02
:10DDD00001E0FA2000E0FF2040B2F8BD9C130020D3
:10DDE000DA080D102DE9F041124D2B6806460F465A
:10DDF0009046CBB1104B588A01F0CEFC0446A8B136
:10DE0000022303708660C76021462846B8F1000FE0
:10DE100003D006F037F9002009E006F041F930B1EF
:10DE2000204601F0C3FB01E0FA2000E0FF2040B2F1
:10DE3000BDE8F0819C130020DA080D1030B50446CF
:10DE40000A48036885B06BB1002569468DF800501B
:10DE5000029406F017F9606829460C3006F0E8F9DC
:10DE6000207A00E0FA2040B205B030BD9C130020BB
:10DE700037B504460D4601F05FFB094B09481C60AD
:10DE8000094B10211D6006F0BDF8062300930749D9
:10DE9000074800224FF4007306F04DFA03B030BD7E
:10DEA000A41300209C130020A013002031DD0710D4
:10DEB000B8080D1040BA80B2704740BA80B27047BF
:10DEC00000BA7047FFF7FCBF037B8B4203D00023EF
:10DED0000173437343837047038B30B544695D1C02
:10DEE0002344058383F8F010038B41695C1C0B44C9
:10DEF000048383F8F02030BD038B426910B55C1CAD
:10DF000013440A0A048383F8F020038B42695C1CE3
:10DF10001344048383F8F01010BD038B426910B5DD
:10DF20005C1C13440A0E048383F8F020038B4269BF
:10DF30005C1C1344C1F30742048383F8F020038B75
:10DF400042695C1C1344C1F30722048383F8F02068
:10DF5000038B42695C1C1344048383F8F01010BDEA
:10DF6000038B4269591C01831344FF2283F8F0207C
:10DF7000038B432B05D84269591C018313440022AB
:10DF8000F4E770472DE9F041074600200C4616469D
:10DF90004FF49A71024606F0BFFA2061002800F0A3
:10DFA0008E80032E07D0637B474D13B94CF0F8FDEC
:10DFB00028602B68236023695A686261012313700B
:10DFC00062695370636997F82A209A706369002523
:10DFD000DD702068D4F81480FFF772FFC8F80400E1
:10DFE00063691D725D7263699D72DD726369042EDF
:10DFF0001D735D739D73DD7308D0F31F012B05D96D
:10E00000032E06D1237B043B012B02D863697A6877
:10E01000DA6062690023137453749374D374626971
:10E02000137553759375D37562691376537693762A
:10E03000D37697F82A0061699AB2904205D9052AE9
:10E0400003D8FA1892F82B2000E00022194401337B
:10E05000102B0A77EDD100236269D1180133002219
:10E06000402B81F82C20F7D16369991801320023E5
:10E07000802A81F86C30F7D162696FF07D006321EE
:10E0800082F8ED00532082F8EC1082F8EE0082F85E
:10E09000EF10238362691A4482F8F0300133442B75
:10E0A000F8D1204635210122FFF716FF238B626944
:10E0B000591C13442183002083F8F06000E0FF2006
:10E0C00040B2BDE8F08100BFDC13002010B504466B
:10E0D000006908B106F0FAF900232361636110BDFD
:10E0E00073B5446A054603212046FFF7EDFE284636
:10E0F00021460322FFF746FF064640BB0222204688
:10E100003921FFF7E9FE20464FF41071FFF7F4FEC6
:10E11000042232212046FFF7DFFEE06AFFF7D2FE3D
:10E1200001462046FFF7F9FE2046FFF719FF218B35
:10E130002069F03189B206F085FA0095606821699E
:10E14000114A432304F0B6F82046FFF7BFFF637B74
:10E15000FF2B1CBF01336373637B092B06D8C3EB12
:10E16000431203EB8203DB009BB201E042F2107327
:10E170004FF4FA7203F2F31393FBF2F3638303F0A9
:10E1800037FE304602B070BD20090D1038B5446A24
:10E19000054608212046FFF797FE284604F12C018A
:10E1A000002205F0C3F9637BFF2B1CBF01336373AF
:10E1B00001236383BDE8384003F01ABE13B5446AF7
:10E1C0000023A384A36B591C0CD03C221E33B3FB49
:10E1D000F2F34FF6FF72934228BF13469BB203B986
:10E1E0000123E384E36B5A1C0ED03C221E33B3FBA5
:10E1F000F2F34FF6FF72934228BF13469BB203B966
:10E200000123A383A38B2384236C591C0ED03C22AF
:10E210001E33B3FBF2F34FF6FF72934228BF13464F
:10E220009BB203B90123E383E38B6384E38BA28B6B
:10E230009A4202D30BB10023A383A37B0BB1236BC0
:10E240000BE094F82C301A0601D4FF2305E0BF2B15
:10E250008CBF6FF07F434FF6FF730093636B0193A6
:10E260002BB9E36A009A134043F08073019304F1E1
:10E270002C016A4601AB01F0A9FB20460A21FFF7F9
:10E2800023FE02B010BD000037B5244D0023036308
:10E290004363EB78044613B1214BDB6883632B792E
:10E2A00013B11F4B1B6901E0A36B5B08E3636B7940
:10E2B00013B11B4B5B6903E0A36BC3EBC303DB0828
:10E2C0002364A3681B69E362AB792BB1144B986993
:10E2D000FFF7F6FD01232063A373EB7923B1104B05
:10E2E000D869FFF7EDFD60632B7AABB10C4D286A5E
:10E2F000FFF7E6FD02AC44F8040D0020214600F0D3
:10E3000007FF064B5B7A3BB1686AFFF7D9FD2146F0
:10E310000190012000F0FCFE03B030BDA8130020E6
:10E32000B4130020F7B5446A00230546E362204693
:10E330000621FFF7C9FD284621460122FFF722FEEC
:10E34000064600282FD1022220463921FFF7C4FDBE
:10E350002046298DFFF7D0FD204637210422FFF704
:10E36000BBFD33461D4A6169985C228B0133571C03
:10E370000A44042B278382F8F000F3D12046FFF7EC
:10E38000EFFD218B2069F03189B206F05BF9144B67
:10E390000193009560682169124A432303F020FF2E
:10E3A0002046FFF793FE637BFF2B1CBF0133637393
:10E3B000637B052B9DBF4FF47A7202FA03F39BB285
:10E3C0004EF660234FF4FA7203F2F31393FBF2F369
:10E3D000638303F00DFD304603B0F0BDBD080D10A2
:10E3E00024090D1020090D10F7B5446A05460121D6
:10E3F0002046FFF769FD284621460322FFF7C2FDAC
:10E400000646002847D1022220463921FFF764FD45
:10E410002046298DFFF770FD042232212046FFF7A8
:10E420005BFDE06AFFF74EFD01462046FFF775FDF4
:10E43000042236212046FFF74FFDA06AFFF742FD78
:10E4400001462046FFF769FD204637210422FFF7E9
:10E4500043FD33461D4A6169985C228B0133571C8A
:10E460000A44042B278382F8F000F3D12046FFF7FB
:10E4700077FD218B2069F03189B206F0E3F8144B67
:10E480000193009560682169124A432303F0A8FEB6
:10E490002046FFF71BFE637BFF2B1CBF013363731A
:10E4A000637B052B9DBF4FF47A7202FA03F39BB294
:10E4B0004EF660234FF4FA7203F2F31393FBF2F378
:10E4C000638303F095FC304603B0F0BDBD080D102A
:10E4D00024090D1020090D102DE9F04F924689B046
:10E4E000BAF80A30D0F8249052682B2B054640F237
:10E4F00022811378022B40F01E8190F82A1000230D
:10E50000D8B288420AD2062B08D0E8180133D418B2
:10E5100090F82B00E47E8442F2D00CE15068FFF7C3
:10E52000D1FCD9F80030984240F00581A64800217E
:10E530000A224CF09DF8BAF80A302B2B40F2FB80EF
:10E54000DAF80430C9F808300021BAF808800291DE
:10E55000F02356467289934209D336689B1AC2EB60
:10E5600008089BB21FFA88F8002EF3D1E3E0716827
:10E570000391039AD15CFF2906D1934A137811467F
:10E58000002B40F0B280C3E04345F6D27289581C9C
:10E59000904203DA039A1A44527803E032680AB1CF
:10E5A0005268127833292DD00ED801291FD022D3DA
:10E5B00003293CD0062935D1082A34BF174608273D
:10E5C000FFB21946082435E0362923D007D834296C
:10E5D0001CD0352926D11746194601242AE03A29AC
:10E5E0001CD03B291ED117461946052422E01746A8
:10E5F000194606241EE0591E002289B24FF0FF344E
:10E60000174617E017461946032413E01746194624
:10E6100000240FE01746194602240BE0174619465E
:10E62000042407E019464FF0FF34002702E01946A2
:10E6300007240427023112FA81F292B20192002FCC
:10E6400040D00233614A9BB2049302EB8402002360
:10E65000079305929B465C49049B625C5B44CBEB51
:10E66000070C9BB25FFA8CFC62BBBCF1030F94BF3A
:10E6700062460422304607A9CDF800C006F061F8D2
:10E68000DDF800C0BCF1040F0CD94F4A07980123F4
:10E690001355FFF715FC059B013443F80B000BF1F4
:10E6A000040BD8E704D10798FFF70CFC079002E0B1
:10E6B0009DF81C3007934449444A01230B55079B9E
:10E6C00042F824307389019A9A420CD3D21AC3EBD0
:10E6D000080892B21FFA88F842450192BFF44DAF84
:10E6E000366873680393019B43E7384B1B6800202F
:10E6F000012B107028D0022B05D1002202924FF07E
:10E700006C082C2325E7032B02D1012102911BE089
:10E71000029A002AF1D14B786BB12C4A1379052B60
:10E7200020D199F80C30012B12D1686AFFF7ACFDAB
:10E730002846FFF72BFD0023C9F80830504605F0A6
:10E74000C5FE09B0BDE8F08F4FF0EC086C2300E780
:10E75000033B022BEFD8686AFFF796FD2846FFF7C8
:10E760002DFDE8E7062B15D199F80C30DA1E022AA8
:10E7700001D9012BDFD116496C6A0A460B4628469F
:10E7800001F024F920460C21FFF79EFB2846FFF7F5
:10E79000C9FDD0E7022BCED199F80C30062BCAD197
:10E7A000029BA9F81A30084B6C6A9B78002BC2D0E8
:10E7B0009068FFF785FBA368A0621B69E3622846A7
:10E7C000FFF712FEB7E700BFA8130020B413002024
:10E7D00024090D10436A93B11A7B0A2A0BD8DFE88B
:10E7E00002F00E0A0A0606060A0A0A0A06000022B3
:10E7F0005A73FFF775BC00225A73FFF793BD704739
:10E8000037B5446A0546002C3DD0237B082B3AD10E
:10E810000A68E36A9A4236D120460C21FFF754FB7E
:10E82000284621460422FFF7ADFB00BB042232211B
:10E830002046FFF751FBE06AFFF744FB0146204604
:10E84000FFF76BFB2046FFF78BFB218B2069F03134
:10E8500089B205F0F7FE0D4B0193009560682169C0
:10E860000B4A432303F0BCFC2046FFF72FFC637BDD
:10E87000FF2B1CBF013363731423638303B0BDE814
:10E88000304003F0B5BA03B030BD00BF24090D100D
:10E8900020090D1073B5446A054605212046FFF78F
:10E8A00013FB284621460322FFF76CFB0646E0B91E
:10E8B000022220463921FFF70FFB298D2046FFF762
:10E8C0001BFB2046FFF74CFB218B2069F03189B2FE
:10E8D00005F0B8FE00956068216904F12802432321
:10E8E00003F0E8FC2046FFF7F1FB637BFF2B1CBF26
:10E8F00001336373637B092B06D8C3EB431203EB2D
:10E9000082031B019BB201E044F620634FF4FA72CC
:10E9100003F2F31393FBF2F3638303F069FA3046D7
:10E9200002B070BD10B5446A5CB1606818B103F004
:10E930002DFD0023636020460021BDE81040FFF755
:10E94000C3BA10BD70B590F83130446A1B07054654
:10E9500042D5038DB3F5107F3CD33CB9442000F081
:10E960001BFF0446002835D0686203E0606808B1E8
:10E9700003F00CFD0021442220464BF079FE03F009
:10E980001BFD606030B3037A154943F02003037226
:10E990004422606803F0D2FB11496068432203F00F
:10E9A000C1FC60680F492A4603F0ECFC95F8313051
:10E9B00003F0040303F0FF062BB920460221FFF702
:10E9C00083FA304609E02846FFF7ACFC28B1284618
:10E9D000FFF7A8FFFF2000E0F12040B270BD00BFAC
:10E9E00024090D10D9E4071048B1406A38B1007B02
:10E9F0000A2803D0431F58425841704701207047EE
:10EA0000F0B5446A85B00546002C46D0A36A03934E
:10EA1000FFF7EAFF002106462046FFF755FA0023DC
:10EA2000A362E362236363632364E363A363E38416
:10EA3000A38463842384002E31D0284621460722F4
:10EA4000FFF7A0FA074600BB04AE04223621204699
:10EA5000FFF742FA56F8040DFFF734FA0146204654
:10EA6000FFF75BFA2046FFF77BFA218B2069F03134
:10EA700089B205F0E7FD00956068216932464323BD
:10EA800003F018FC2046FFF721FB074928460A46F9
:10EA90000B4600F09BFF384602E0F12000E03046D4
:10EAA00040B205B0F0BD00BF24090D1037B5494B89
:10EAB0001D68002D00F08B806B6A002B00F08580B4
:10EAC0001A7B002A00F08180DA8C62B1998C0131C6
:10EAD00089B29142998406D12846FFF791FF2846D2
