:020000041000EA
:10000000D892002081000010A30C0020A50C002035
:10001000A70C0020A70C0020A70C00200000000067
:10002000000000000000000000000000A70C0020FD
:10003000A70C002000000000A70C0020000000001A
:10004000A70C0020A70C002000000000000000000A
:1000500000000000000000000000000000000000A0
:100060000000000000000000000000000000000090
:100070000000000000000000000000000000000080
:10008000244B25492548002270B51A604FF0AA720A
:10009000234C11604FF088511164A2F57F42D43A8D
:1000A0000121116040F20D321A6003225A601D4A8C
:1000B0001D4B241AD51A00F000F8714699421E46CD
:1000C00014D9914212D2BFF34F8FBFF36F8F1948EB
:1000D00019498842C0F0028000F005B80022026091
:1000E0000430FFF7F6BF1548004770BD0F4A0023E4
:1000F0001544D1188D4203D9D158F1500433F8E793
:100100000B4A00231444D1188C42DCD9D158C15079
:100110000433F8E70000530100010010805A00206A
:10012000F06E0020805A0020000000200000001027
:10013000805A0010F06E0020E4460120A90C002037
:1001400010B505F04BFE0C4A1368012B05D10024B5
:10015000146005F047FE204610BD23B905F042FEAD
:100160006FF0010010BD05F03DFE0448044A054B48
:100170007F2103F09FFD00BF006E00202A4B00206E
:10018000784B0020634B002008B505F027FE084B94
:100190001A682AB901221A60BDE8084005F022BE9B
:1001A00005F020FE0348044A044B8D2103F082FD34
:1001B000006E00202A4B00201D4B0020634B0020C6
:1001C00008B5FFF7BDFF0028FBD108BD70B5044698
:1001D0000E461546FFF7F4FF304621462A4603F047
:1001E00097FDBDE87040FFF7CFBF000070B50C462B
:1001F00016460546FFF7E4FF00F0B6FA00F092FA63
:1002000029462246304606F03DFC054B00220446B6
:100210001A7000F073FAFFF7B7FF204670BD00BFF9
:10022000FC6D002008B50A4A13689BB21360DA0718
:1002300005D5002000F0B4F8064B1B6806E09B07CC
:1002400005D5012000F0ACF8024B5B68984708BD6B
:1002500000000583F86E0020022870B504460D46A4
:1002600016460BD904283DD1214B1A6842F00102F1
:1002700042EA450500221D605A6070BD27D0182053
:100280001C4900F08BFA1C4BA02283F818234FF076
:1002900080721A605CB9194B1E60194B1A6842F0E3
:1002A00001021A60DA6842EA8505DD6070BD012C42
:1002B0000BD1124B5E60124B1A6842F002021A60B8
:1002C000DA6942EA8505DD6170BD022C07D10D4B6C
:1002D0001A6842F0010242EA45051D6070BD042C17
:1002E000C2D070BD08480949952201F041FCFEE7E3
:1002F000600005832502002000E100E0F86E002088
:100300000400058330000583C94B0020EE4B00201C
:10031000022808B504D904280AD1084B186808BD7A
:1003200008B9074BFAE701280CBF064B064BF5E767
:1003300006480749B12201F01BFCFEE7680005836F
:10034000400005834400058334000583C94B002029
:10035000EE4B0020022001210022FFF77DBF042088
:1003600001210022FFF778BF034B9860BFF34F8F46
:10037000BFF36F8F704700BF00ED00E00220FFF772
:10038000C7BF10B50446FFF7F9FF01340444FFF777
:10039000F5FF001B0028FADB10BD0420FFF7B8BFF3
:1003A00008B9012202E0012802D10222014B1A60A1
:1003B000704700BF0000058310B51C4B1C4A19682C
:1003C0001368C1F3423123F4FF630139104623F06F
:1003D0000703184A062905D8DFE801F013090E13B0
:1003E000131313001449116043F010030DE0134977
:1003F000116043F0400308E01149116043F4806349
:1004000003E01049116043F4007303600E4B12685F
:100410001A6001F0A5FB0D4B18684FF47A73B0FB1E
:10042000F3F0BDE8104001F087BB00BFC08100833E
:10043000B8810083186F0020002D310180BA8C0133
:1004400000751903005A6202146F00205C6E0020D0
:10045000014B1868704700BF186F0020014B1868E7
:10046000704700BF146F0020104B82B01A680192D1
:10047000019AC2F301720192019AA2B91A6801921B
:10048000019A22F080720192019A42F00052019288
:10049000019A1A601A680192019A02F000620192B0
:1004A000019A002AF6D002B0704700BFB8810083DD
:1004B000054B064A002814BF1046184643699B06A0
:1004C000FCD50160704700BF000003830000048377
:1004D0002DE9F04F3F4C8DB0914680460F469A462D
:1004E0006D4604F11002206861682B4603C308348E
:1004F00094421D46F7D120681860A388364CAB8023
:1005000006AD04F11003206861682E4603C6083466
:100510009C423546F7D1A3882068B3803060FFF74E
:1005200097FF2E4B2E4A18602E48B8F1010F18BFC6
:10053000104603224262C66846F08001C160D3F8CB
:1005400000B00A23BBFBF7F52C0A03FB0BFB0134BD
:10055000BBFBF7F7B5FBF4F8B7FBF5F503FB185554
:1005600008F1FF31B5FBF3F7032903FB1753E5B29D
:10057000C4F30724056018BF4FEA510C4460816240
:100580000CA901EB430300F10C0233F8181C33F8FB
:10059000303C14BF0CF1FF3C4FF0000CC0F82CC0F5
:1005A000816543654723166083601188BDF8583024
:1005B00021F003010904090C41EA090121F00401B9
:1005C000194321F0380141EA0A0AA2F800A00DB04F
:1005D000BDE8F08FC84F0020DE4F00201C6F0020C8
:1005E000000003830000048313B500230446009336
:1005F0004FF4E1310322FFF76BFF0CB9054B02E02A
:10060000012C04D1044B1A6842F001021A6002B0B6
:1006100010BD00BF4C0003834C000483134B144AED
:10062000002814BF10461846BF221023C260802144
:100630008360002303618361C16003604360C36022
:1006400043608360C2608360C3600361C3614362CF
:100650008362C3624363C363036443648364C364A8
:100660000365436583650366704700BF000003832D
:10067000000004830CB437B506AC01A854F8045B41
:1006800000F0B2F821462846009403F005FE0198D8
:1006900000F0B1F803B0BDE8304002B070470CB4D0
:1006A00037B506AC01A854F8045B00F09DF821466C
:1006B0002846009403F0F0FD019800F09CF803B088
:1006C000BDE8304002B0704710B505F087FB074B1E
:1006D0001C7824B105F086FB6FF0630010BD012289
:1006E0001A7005F07FFB204610BD00BF206F002070
:1006F000014B00221A707047206F0020074A537880
:100700009B0708D0064B196841F00D0119601B6862
:100710001360002000E0FB2040B27047246F0020EF
:10072000000053010E4B1A68D2070FD55A6822F009
:100730001E025A605A6842F013025A605A6822F048
:100740001E025A605A6842F003025A60044B1A684B
:1007500022F001021A601A68024B00201A607047EA
:1007600000005301246F002008B505F037FB0A4B49
:100770005A6822F01E025A605A6842F013025A6008
:100780005A6822F01E025A605A6842F003025A6008
:1007900005F028FB002008BD0000530170B5C6B26B
:1007A0005F2E04460D4617D8B1B105F017FB06F0D1
:1007B0001F066209012303FA06F66032084B43F86C
:1007C0002260084B43F8345003EBC40400256560F5
:1007D00005F008FB284600E0FE2040B270BD00BFD7
:1007E00000E100E0286F002010B5044605F0F6FA9D
:1007F0002060002010BD08B505F0F4FA002008BD07
:1008000008B5002005F06CF9C01708BD08B505F063
:10081000AFF9C01708BD08B500F18050FFF7D6FC4E
:10082000002008BD08B50B4611461A46FFF7DEFC4E
:10083000C01708BD70B503460C4670B91F4B93F83E
:100840002020012A1D4601D0FFF784FDFFF796FD09
:100850000123206085F8203017E0012817D1174BBD
:1008600093F84020012A1D4601D0FFF778FDFFF7DD
:1008700094FD0646FFF7F2FD114BB0FBF3F0B6FB1B
:10088000F0F62660012385F84030002013E00228AE
:100890000BD10A4B93F84020012A1D4601D0FFF7E7
:1008A0005EFDFFF77AFD2060ECE70648064A8D21E1
:1008B000FFF7E0FEFF2040B270BD00BF28720020AD
:1008C00040420F00175000205B50002010B5044636
:1008D000FFF7FAFE0021204602F0E0FE0446FFF793
:1008E00007FF204610BD0000F8B50E461446074627
:1008F00018B91548154A3A2103E031B91248144A8B
:100900003E21FFF7B7FEFF201BE0FFF7DDFE254687
:100910003119FF2DC5EB010108D938464FF480721B
:10092000002302F0B9FFA5F58075F1E724F0FF017F
:100930003144E2B20023384602F0AEFFFFF7D8FEA2
:10094000002040B2F8BD00BFD2500020E25000208D
:10095000F350002038B504460D46FFF7B5FE294692
:100960000022204602F0F2FF0446FFF7C1FE2046B7
:1009700038BD012811D871B10B780C2B0DD8CB786C
:10098000022B0AD88B78012B07D8487803288CBF14
:10099000002001207047084670470020704708B1CA
:1009A000012801D1FFF784BD704700002DE9F04117
:1009B00090B080460E46FFF7DCFF002849D0274B59
:1009C000274C302000FB083031460422013003F070
:1009D0009FF90FCC03AD0FC50FCC0FC50FCC3778E7
:1009E00096F803C00FC5224610A800EB870752F8FF
:1009F000040F236851682B60757857F834EC03AB0B
:100A000003C310A901EB450503AF35F8342C254687
:100A100055F80C0F696803C72989198010A800EBE5
:100A20004C0354F8160F33F8343CB1780390A08887
:100A3000ADF8100010A800EB410118F1000031F8EA
:100A4000341C009118BF01207146FFF741FD0020C2
:100A500000E0FC2040B210B0BDE8F08178720020C8
:100A6000045100202DE9F04104460F46FFF781FFB5
:100A700008B9FC2022E03022124E02FB04F506EBFE
:100A80000508715DC9B9404603F04BF939460422A7
:100A900008F1010003F03CF901237355251C18BF30
:100AA00001252846FFF7BAFD2846FFF79DFD2046A1
:100AB0003946FFF77BFF08B1DBE7FD2040B2BDE818
:100AC000F08100BF78720020052070470048704711
:100AD00059510020004870475051002005207047B0
:100AE0000020704730B50B4D0FCD8BB06C460FC456
:100AF0000FCD0FC495E8030084E80300064B00A95E
:100B00001944064A525843F8042B054A9342F6D139
:100B10000BB030BD6051002020300281E0CFFD7E5F
:100B200048300281034B044A1A60044A1A610022C9
:100B30001A62704790B00083F00000E7C70000061B
:100B40002B4B2C4A1A602C4A5A6040F2FF129A60D2
:100B50002A4B1A6822F002021A601A6842F0020256
:100B60001A601A6842F400621A605A6822F002029F
:100B70005A605A6842F002025A605A6842F40062AF
:100B80005A605A6922F002025A615A695A615A69D6
:100B900042F400625A6110331A6822F002021A60AD
:100BA0001A681A601A6842F400621A6053F8042C3A
:100BB00022F0020243F8042C53F8042C43F8042CCE
:100BC00053F8042C42F4006243F8042C53F8082C28
:100BD00022F0020243F8082C53F8082C43F8082CA2
:100BE00053F8082C42F4006243F8082C704700BF09
:100BF00000B100830FFFFF1838FFFFF94830028172
:100C0000104B04221A6010221A6100221A620E4B45
:100C10001A6822F01C021A605A6822F01C025A60FC
:100C20005A6922F01C025A611A6922F01C021A61E8
:100C3000DA6822F01C02DA609A6822F01C029A60DC
:100C4000704700BF00B0008348300281044B054A62
:100C50001A60054A1A6140F2FF121A62704700BF1B
:100C600030B0008300FFFF0008FFFFF9034A402374
:100C700013601361024B00221A60704760B000835A
:100C800080B0008308B5FFF72DFFFFF74BFFFFF79C
:100C900057FFFFF7B5FFFFF7D9FFBDE80840FFF7A3
:100CA000E5BFFEE7FEE7FEE72748284B10B54360A7
:100CB000FFF75AFB264B4FF4E0225A62FFF77CFB0A
:100CC000244B1B68002B01DBFFF7DCFF00F06CF905
:100CD000214800F077F962B6022005F0FDFA1F48BE
:100CE00000F016FA032000F0C3FA0228044617D1D8
:100CF0001B4800F067F90021032000F031FA0021C1
:100D0000204600F02DFA174800F05CF92046032138
:100D1000154A4FF4805300F05DFE18B9134802E005
:100D2000134800E0134800F04DF91348134900F050
:100D30005CF9134A134BBFF36F8FBFF34F8F9D4680
:100D400010460047002010BD000000208100002058
:100D500000ED00E034C3008388510020506E002075
:100D600097510020A7510020D8920020DD5100208B
:100D7000BA510020F25100200952002000900710C3
:100D80000190071000000420154B70B500241C755D
:100D900031B9036830221A7003680133036070BDF3
:100DA0001433B1FBF2F402FB1415092D214601D8CE
:100DB000303505E0102A06D10A4E354415F80A5C94
:100DC00003F8015C013B002CEBD1013B13F8012F30
:100DD0002AB101680A70026801320260F6E770BD4C
:100DE000EDA20020185A00202DE9F3416B4F019726
:100DF00000230E463B700378002B00F0BE80252BAD
:100E000005D0019A511C019180461370B2E04378DD
:100E1000633B00F10108152B00F2AC80DFE803F022
:100E20004C0BAA53AAAAAAAAAAAAAAAA193CAAAA75
:100E30009DAAAAAAAA303168002906F1040405DA9D
:100E4000019B5A1C01922D221A70494201A80A22C4
:100E500012E03168002906F1040405DA019B5A1CEE
:100E600001922D221A704942019B02A85A1C40F897
:100E7000042D30221A700822FFF786FF264679E0FB
:100E80003168002906F1040408DA019B5A1C01921A
:100E90002D221A70494201E03168341D019B5A1C11
:100EA000019230221A70019B02A85A1C40F8042DAE
:100EB00078221A701022DFE7019B3278591C0191C9
:100EC00004361A7056E0073626F00703D3E90045CA
:100ED00003F10806002C75F1000307DA019B5A1C88
:100EE00001922D221A70644265EB45052046294681
:100EF00002F0A2FE07EE100AF7EE007AB4EEE77AEF
:100F0000F1EE10FA05DB01A821460A22FFF73CFFAB
:100F100004E0019B5A1C019230221A70019B204967
:100F20005A1C01922E221A7000220A7504230D46C3
:100F30000A2092FBF0F100FB1120EC183030013B4D
:100F40000A46E073F4D1174A12F8013F93B10199B0
:100F50000B70019B01330193F6E73368311D13F8E1
:100F6000012B32B1019A501C019013F8010C107042
:100F7000F5E70E4608F101003DE7019A137001976D
:100F8000019B197831B10020FFF709FD019B013366
:100F90000193F5E702B0BDE8F08100BF02A3002095
:100FA000D8A20020E7A2002007B5054B18680190E1
:100FB00001A90020FFF756FD03B05DF804FB00BF58
:100FC0001952002010B578B1044614F8011B59B12C
:100FD0000020FFF7E4FC14F8013C0A2BF5D10020B7
:100FE0000D21FFF7DCFCF0E710BD0FB407B5049846
:100FF00018B105A90191FFF7F7FE03B05DF804EB06
:1010000004B0704770B5084B19680E790023B342DD
:1010100007D21C010D682A192C59844202D00133D1
:10102000F5E70022104670BD904501200148FFF70A
:10103000DCBF00BF8452002010B5134C1348FFF7EB
:10104000D4FF13482168FFF7D0FF2268032A13D882
:10105000DFE802F002060A0E012222600D4810BDF0
:10106000022222600C4810BD032222600B4810BDF2
:10107000002222600A4810BD0A480B499A22FFF755
:10108000B4FF002010BD00BF8CA5002091520020AD
:10109000A852002090A5002090E500209025012076
:1010A00090350120CB5200202C57002038B5FFF797
:1010B000A9FF836845681D44124B1B689B68A5F512
:1010C0008055B5FBF3F403FB145494B900F030FDE4
:1010D00028462146FFF79AFB002806DA00F02AFD91
:1010E00009480A494FF4957207E000F023FD2046B5
:1010F00038BD0548054940F23312FFF776FF082056
:1011000038BD00BF90450120CB520020D1560020B1
:1011100070B5F8B10268EAB10479DCB18368591E90
:10112000194017D10D4D2860A1420FD25068B0FB75
:10113000F3F603FB1600154670B9A868B0FBF3F58B
:1011400003FB1500103238B90131EDE7FFF758FB0A
:10115000002070BD032070BD042070BD90450120AB
:1011600010B5094B1B680C4663B1FFF74BFF28B164
:1011700083689C4204D2C460002010BD062010BDCC
:10118000052010BD072010BD9045012070B5174BFC
:101190001B680E46154623B329B322B3FFF732FF6F
:1011A0000446D0B1C368EA1883689A4217D800F0A1
:1011B000BFFCE0686368314618442A46FFF72BFB02
:1011C000002803DA00F0B6FC082070BD00F0B2FC85
:1011D000E3681D44E560002070BD062070BD052059
:1011E00070BD072070BD032070BD00BF9045012079
:1011F00030B591B00446FFF705FF30B919481A49D8
:10120000D122FFF7F2FE06202AE081682046A1F5F0
:101210000071FFF7A5FF054630B112481249D922E7
:10122000FFF7E3FE28461BE0204669464022FFF711
:10123000ADFF30B10B480C49E022FFF7D6FE082085
:101240000EE0012300AA024404301169074A9142CA
:1012500018BF00232028F5D1012B14BF0120022044
:1012600011B030BDCB5200202B52002046554E54B9
:1012700037B5244B1B6805463BB9234823494FF437
:101280001F72FFF7B2FE072439E0FFF7B1FF022813
:10129000044601D11E482EE02846FFF7B3FE20B9D0
:1012A00019481C494FF480721AE081682846A1F55C
:1012B0000071FFF755FF044640B1134815494FF43C
:1012C0008472FFF792FE022C18D113E0284669467B
:1012D0000822FFF75BFF30B10B480E4940F20F12B6
:1012E000FFF783FE0AE0009B0B4A23F07F43934203
:1012F00004D102240948FFF778FE00E001242046CB
:1013000003B030BD90450120CB5200201D5200207B
:10131000D5520020515200204D4D4D00ED5200207D
:10132000F0B5C9B005AD074600214022284602F0BD
:10133000F8FC38465F495F4E8822FFF727FF0446D6
:10134000002840F0AB805C48FFF74FFE15A8FFF780
:10135000BDFA20B159485A4940F291129AE015A8B5
:1013600031468822FFF7C0FA28B1544854494FF457
:10137000CC72FFF73AFE5348FFF737FE15A829460F
:10138000FFF7E8FA044620B14C484D4940F29D125F
:1013900080E04D48FFF729FE295D4C480134FFF7F6
:1013A00024FE142CF8D14A48FFF71FFE3846694640
:1013B0002246FFF7EBFE074638B14048404940F26D
:1013C000A912FFF712FE082071E03F48FFF70DFE5B
:1013D0003C461DF804103D480134FFF706FE142C6E
:1013E000F7D13B48FFF701FE0023E95C1DF803201D
:1013F000914207D03748FFF7F8FD3048304940F2B6
:10140000B71247E00133142BEFD133483168294D2F
:10141000FFF7EBFD31487168FFF7E7FD0024214637
:101420002A692F48FFF7E1FD2146AA682D48FFF7FA
:10143000DCFD2146EA682C48FFF7D7FD21466A69A2
:101440002A48FFF7D2FD2146EA692948FFF7CDFD7A
:1014500021462848AA69FFF7C8FD2146264855F8C5
:10146000202F0134FFF7C1FD042CD8D17368042B61
:1014700006D9124812494FF4E572FFF7B6FD03276B
:1014800032681E4B22F07F429A420FD00B480C4923
:1014900040F2CF12FFF7A9FD032008E007480849F2
:1014A00040F2D312FFF7A1FD204600E0384649B0D4
:1014B000F0BD00BF04A5002004530020CB52002043
:1014C0003657002018530020265300203B5300209D
:1014D0008E5200203E5300205C5300208D5300208C
:1014E000BE530020F053002022540020545400200A
:1014F00086540020B8540020EA5400204D4D4D0081
:101500002DE9F04FCBB007AF064688469146002143
:10151000402238469A4602F004FC6848FFF765FD11
:1015200017A8FFF7D3F920B1654866494FF4F87260
:101530009DE0DFF8B8B14FEA4A1A0BEB0A043046D7
:10154000A1682569FFF70CFE20B15D485D4940F2B6
:10155000F7128CE05C48FFF748FD23695B485A1B93
:1015600064215143B1FBF3F1FFF73FFD002D41D062
:101570004D45304641460FD34A46FFF707FE044625
:1015800030B917A841464A46FFF7AEF9034600E0D6
:101590000023C9EB05050EE02A46FFF7F7FD0446D8
:1015A00038B92A4617A84146FFF79EF92546034653
:1015B00001E000252B460BEB0A026420126901931F
:1015C000511B4143B1FBF2F14048FFF70EFD019B77
:1015D00034B13B483B4940F21122FFF706FD0AE0D7
:1015E000002BC3D03648374940F21722FFF7FDFCE5
:1015F000082400E02C463648FFF7F7FC17A83946C8
:10160000FFF7A8F920B12E482E4940F21F222EE004
:1016100034B12B482B4940F22522FFF7E6FC49E084
:101620002C48FFF7E2FC2546795D2B480135FFF792
:10163000DCFC142DF8D12948FFF7D7FC0BEB0A038B
:101640003046996903F11805FFF78AFD20B11C485F
:101650001C4940F231220AE06A68304602A9FFF7CD
:1016600095FD054638B11648164940F23722FFF776
:10167000BCFC08201FE01A48FFF7B7FC02AB164875
:10168000595D0135FFF7B1FC142DF7D11348FFF771
:10169000ACFC002502AB5A5D7B5D9A4203D0114839
:1016A000FFF7A3FC08240135142DF3D114B90E481B
:1016B000FFF79BFC20464BB0BDE8F08F0B5300209A
:1016C000CB520020E95600201C5500203A5500203E
:1016D0004E5500205A5500203B5300208E520020CA
:1016E0006F550020455300208455002004A500209C
:1016F0002DE9F84F2E4B1F68884615469A46002F55
:1017000049D000294AD0002A48D0FFF77BFC044684
:10171000002846D0C3688268E918914244D84668D8
:101720001E44BB6806F1FF39B6FBF3F7A94403FB7F
:10173000176BB9FBF3F9BBF1000F0ED100F0F8F90C
:1017400030465946FFF762F8002804DA00F0F2F953
:101750000820BDE8F88F00F0EDF901374F4509D8B2
:10176000DAF800309B6803FB07FB00F0E1F958460C
:101770000021E7E700F0DCF9304641462A46FFF752
:1017800051F80028E2DB00F0D5F9E3681D44E5607C
:101790000020BDE8F88F0720BDE8F88F0320BDE8E2
:1017A000F88F0620BDE8F88F0520BDE8F88F00BF50
:1017B0009045012030B5044691B00D46FFF776FC08
:1017C000002320468DE8280002930393FFF71AFCBC
:1017D00081682046A1F50071FFF7C2FC054638B1CB
:1017E0000B480C494FF4A772FFF7FFFB28460DE0AA
:1017F000204669464022FFF77BFF044628B1044893
:10180000044940F25512FFF7F0FB204611B030BDFD
:10181000CB520020FF5600202DE9F84F154689468F
:101820001E468046FFF7EEFB074631487968DFF831
:10183000DCB0FFF7DAFB0A9B2E484FEA431A0BEBAA
:101840000A04E16879602369BB60FFF7CEFB0021E1
:101850004046FFF785FCA1684846FFF781FC264813
:101860002469FFF7C2FB0BEB0A0364211B692348C1
:101870001A1B5143B1FBF3F1FFF7B7FBB4424846E3
:10188000294612D33246FFF781FC074620B11C4897
:101890001C494FF4617223E0404629463246FFF767
:1018A00027FFA41B074600B316E02246FFF76EFC95
:1018B000074620B11248134940F28D3210E04046ED
:1018C00029462246FFF714FF074628B90E48FFF7BE
:1018D0008CFB0020BDE8F88F09480A4940F2963297
:1018E000FFF783FB3846BDE8F88F002CBBD1EDE74E
:1018F0009B550020C0550020E55500203A5500209A
:10190000CB5200206C520020FC55002004A5002082
:101910002DE9F047224D0C46FFF774FB05EB44150B
:101920004168AE681F48D5F80C806F690E44FFF718
:101930005CFB1D482A692146FFF757FB1B48AA6834
:101940002146FFF752FB1A48EA682146FFF74DFB94
:101950006A6918482146FFF748FB17483146FFF7E8
:1019600044FB16483946FFF740FB15484146FFF750
:101970003CFB394640463246124B00F035F90146F1
:1019800058B11148FFF731FB104811494FF47072FC
:10199000FFF72BFB0820BDE8F087BDE8F08700BF0C
:1019A00004A5002009560020BE530020F05300205B
:1019B00022540020545400203B5600205B56002047
:1019C0007B560020086E00209B560020CB52002042
:1019D000495700202DE9F047814692B00D469846C0
:1019E000174612B30BB30846FFF79AFC044630B112
:1019F00049484A4940F2DA32FFF7F7FA16E006465C
:101A0000474B5B689E4217D22846394642463346CA
:101A1000FFF776FD824630B13F48404940F2E3325D
:101A2000FFF7E3FA03E00136EAE70324A24628467B
:101A30005146FFF7BFFE54462846FFF7D9FB022860
:101A400005D13848FFF7D1FA002C36D060E0002CE1
:101A50005ED12846FFF72AFB2146402202A802F069
:101A600060F9314C069428460794089409940A9426
:101A70000B940C940D94FFF7C5FA81682846A1F5E4
:101A80000071FFF76DFB044620B12348274940F25F
:101A900073120AE0284602A94022FFF729FE0446F5
:101AA00058B11D48214940F27912FFF79EFA24B13E
:101AB00019481A4940F2F73228E00026184B5A68B4
:101AC000964219D203EB46131B6A012B04D1284618
:101AD0003146FFF71DFF06E00096484629463A4684
:101AE0004346FFF799FE044620B10B480B4940F2EC
:101AF00005420BE00136E1E728460021FFF75AFED8
:101B0000044628B10448054940F20F42FFF76DFA38
:101B1000204612B0BDE8F087CB520020475200208B
:101B200004A50020B856002046554E5419570020F1
:101B300072B6704762B670470138B0F1807F0AD242
:101B4000064B1A68196821F00301196058600020DB
:101B500098601A6070470120704700BF10E000E0F5
:101B600008B5FEF77BFC014B186008BD5C6E0020D9
:101B70000FB408B50298FFF738FABDE80840002016
:101B800004B0704700207047002070470120704764
:101B90000020704700207047EFF30882064B18685A
:101BA00008B906481860186801448A422ABF024BE7
:101BB0004FF0FF301960704794450120E446012042
:101BC00070B50E4615460024AC4204DA305DAFF322
:101BD00000800134F8E7284670BD00207047FEE71A
:101BE0004FF0FF30704700002DE9F04F1C46C0F366
:101BF0000B03AFB006460F4691460BB19C4826E05A
:101C00004FF022439A6842F223539A4205D1B9F128
:101C1000006F02DD09F1784000E048460EA90D2270
:101C2000FEF7F9FD20B19348FFF7A2FF082545E133
:101C3000034605460EAA1A445179DA00013301FA27
:101C400002F2082B1544F5D1BD4204D98A48FFF7AA
:101C50008FFF022532E1052223460EA94FF0000A2C
:101C600012A8CDF85CA0CDF858A001F0D1FC8348B3
:101C7000FFF77EFF09F10D0931468148FFF778FF34
:101C800049468048FFF774FF29467F48FFF770FFF9
:101C9000236820464FF480519847074608B97B488F
:101CA00007E0236820464FF480519847804620B9CA
:101CB0007748FFF75DFF0225ABE012A801F0CDFAEF
:101CC000FEF79EFD002801DA7248F2E7691C18BF92
:101CD00001210691CDF81CA0079A924522D16E48A9
:101CE0004946FFF745FF4FF022439A6842F22353DB
:101CF0009A4205D1B9F1006F02DD09F1784000E0A8
:101D0000484639464FF48052FEF785FD20B16348BE
:101D1000FFF72EFF08257CE04FF4805309F580592A
:101D2000079382460799069ACAEB01030C9322B9DE
:101D30004FF480530D93002304E0B5F5805FF7D294
:101D40000D9501230CAA8DE80C000DF12F030293D1
:101D50000DAA07EB0A0312A8414601F0A4FB0C9B55
:101D6000DDF834B008909A440BF1FF3333441B0B79
:101D70000993330BB6EB033F18BF0133CBEB0505DB
:101D80001A0309998B424FF0224042F223511DD889
:101D9000806888420CD1B2F1006F09D902F1784015
:101DA000002104920593FEF731FD049A059B07E09C
:101DB0001046002104920593FEF728FD059B049A26
:101DC000010602F5805229D40133DAE783688B4299
:101DD00005D1B6F1006F02DD06F1784000E0304633
:101DE00041465A46FEF71EFD030603D52C48FFF771
:101DF000BFFE13E0089B5E4413B9069AC2B1BDB999
:101E000063682046394698476368204641469847AC
:101E1000089D12A8214601F0C4FB4FE063682046EC
:101E20003946984763682046414698470925F0E7B8
:101E30000C9B002B36D10D9B002B33D10699636888
:101E400019B99DF82F20012A08D020463946984715
:101E500063682046414698470125DAE7204639461F
:101E600098476368204641469847069DD1E700BFE2
:101E70005F57002095570020A8570020DA57002010
:101E8000F057002003580020115800202658002049
:101E90003D580020555800206C58002089580020DB
:101EA0009B580020002D7FF417AF63682046394609
:101EB00098476368204641469847AAE728462FB0CE
:101EC000BDE8F08F826C531EB3F5887F2DE9F04199
:101ED00023D8436A076B4469D0F828C0856BC66A6B
:101EE000C91A914228BF11462FB9C768C6EB070827
:101EF000884598BF07630E44521AC662826419442B
:101F00008B4209D0AB4234BF664600265A1B26449A
:101F1000B25CE2540133F3E74362BDE8F0812DE99E
:101F2000F04F93B004460B910F92206B0A9050B97A
:101F3000E36AE2680B9DD21A636AE91A914205D9F5
:101F4000D318099304E00B9E099601E00B9F0997B3
:101F5000A26B616BE36B0292A26801910593012170
:101F600063682069256C009001FA02F2013A01FAD7
:101F700003F3013BA16A1092E26A0395666C119328
:101F800027686069089104920025D4F824B0A269FA
:101F9000E169236A06960E9707900C95049FDDF879
:101FA00040800198009D07EA080606EB0017B1F192
:101FB000807F35F8170004D21578090245EA03231B
:101FC0000132CD0A4543AB4280F0AF82C0F50061DB
:101FD000009E00EB511026F81700049F06F66C6176
:101FE0000FB90A98E8B1049E119F06EA07000E9EF9
:101FF00000FA06F8BBF1000F02D1089F7E1E01E037
:102000000BF1FF36DDF81CC00E981CF80670C0F10D
:10201000080647FA06F608EB06004FF4C06606FB12
:102020000011049E019F0136062F049600F20C81D8
:102030003846032828BF03203F1AB5F1807F019757
:102040004E8804D210782D0240EA03230132E80AB8
:102050007043834207D2C6F5006506EB55164E80E5
:102060004FF0020C06E0A6EB56161B1A4E80281AFB
:102070004FF0030C4FEA4C09B0F1807F01EB0907E8
:1020800031F81C6004D21578000245EA03230132BE
:10209000C50A7543AB4206D2C6F5006006EB501682
:1020A0003E804F4607E0A6EB56163E804FEA4C07AF
:1020B0005B1B0137451B4FEA4709B5F1807F01EBF8
:1020C000090A31F8176004D210782D0240EA032380
:1020D0000132E80A7043834206D2C6F5006506EB7A
:1020E0005516AAF8006009E0A6EB56164FEA470914
:1020F0001B1AAAF8006009F10109281A4FEA4908D9
:10210000B0F1807F01EB080731F8196004D215782F
:10211000000245EA03230132C50A7543AB4205D2EA
:10212000C6F5006006EB50163E8008E0A6EB56169A
:102130004FEA49085B1B3E8008F10108451B4FEA46
:10214000480CB5F1807F01EB0C0731F8186004D220
:1021500010782D0240EA03230132E80A70438342DB
:1021600005D2C6F5006506EB55163E8008E0A6EBE5
:1021700056164FEA480C1B1A3E800CF1010C281A27
:102180004FEA4C08B0F1807F01EB080731F81C6082
:1021900004D21578000245EA03230132C50A7543CB
:1021A000AB4206D2C6F5006006EB50163E804746AD
:1021B00007E0A6EB56163E804FEA4C075B1B013743
:1021C000451B4FEA4708B5F1807F01EB080C31F859
:1021D000176004D210782D0240EA03230132E80A86
:1021E0007043834206D2C6F5006506EB5516ACF87F
:1021F000006009E0A6EB56164FEA47081B1AACF838
:10220000006008F10108281A4FEA4807B0F1807F02
:1022100001EB070531F8186004D21178000241EA99
:1022200003230132C10A71438B4206D2C6F5006016
:1022300006EB50162E80B84670E1A6EB56165B1AD8
:102240002E804FEA480866E10298029FC0EB0B0619
:102250000898BB4528BF0020079F3E4416F800C0E1
:102260000198019E09288CBF06200320361A4FEAE8
:102270004C0C01960CF4807606F20110B5F1807FCB
:1022800001EB400831F8107004D210782D0240EABA
:1022900003230132E80A784383420BD2C7F5006575
:1022A00007EB5517F643A8F8007006F480764FF058
:1022B000020807E0A7EB57171B1AA8F80070281AA6
:1022C0004FF003084FEA4C0C06EA0C0908EB060530
:1022D0004D44B0F1807F01EB450A31F8157004D20E
:1022E0001578000245EA03230132C50A7D43AB425B
:1022F0004FEA480808D2C7F5006007EB5017AAF864
:10230000007026EA090609E0A7EB57175B1BAAF83D
:10231000007008F1010809EA0606451B4FEA4C0C5B
:1023200006EA0C0908EB06004844B5F1807F01EB92
:10233000400A31F8107004D210782D0240EA0323CD
:102340000132E80A784383424FEA480808D2C7F5C9
:10235000006507EB5517AAF8007026EA090609E0A0
:10236000A7EB57171B1AAAF8007008F1010809EA31
:102370000606281A4FEA4C0C06EA0C0908EB06057B
:102380004D44B0F1807F01EB450A31F8157004D25D
:102390001578000245EA03230132C50A7D43AB42AA
:1023A0004FEA480808D2C7F5006007EB5017AAF8B3
:1023B000007026EA090609E0A7EB57175B1BAAF88D
:1023C000007008F1010809EA0606451B4FEA4C0CAB
:1023D00006EA0C0908EB06004844B5F1807F01EBE2
:1023E000400A31F8107004D210782D0240EA03231D
:1023F0000132E80A784383424FEA480808D2C7F519
:10240000006507EB5517AAF8007026EA090609E0EF
:10241000A7EB57171B1AAAF8007008F1010809EA80
:102420000606281A4FEA4C0C06EA0C0908EB0605CA
:102430004D44B0F1807F01EB450A31F8157004D2AC
:102440001578000245EA03230132C50A7D43AB42F9
:102450004FEA480808D2C7F5006007EB5017AAF802
:10246000007026EA090609E0A7EB57175B1BAAF8DC
:10247000007008F1010809EA0606451B4FEA4C09FD
:1024800006EA090C08EB06006044B5F1807F01EB19
:10249000400A31F8107004D210782D0240EA03236C
:1024A0000132E80A784383424FEA480808D2C7F568
:1024B000006507EB5517AAF8007026EA0C0609E03C
:1024C000A7EB57171B1AAAF8007008F101080CEACD
:1024D0000606281A08EB060506EA49063544B0F157
:1024E000807F01EB450631F8155004D211780002C7
:1024F00041EA03230132C10A69438B424FEA48088B
:1025000005D2C5F5006005EB5015358006E0A5EB5A
:1025100055155B1A358008F10108411A079F07F825
:102520000B800BF1010B00F045BC491B5B1B009DB0
:10253000A0EB501025F81700019F07F1C00CB1F176
:10254000807F4FEA4C0735F81C5004D210780902FE
:1025500040EA03230132C80A6843834214D2C5F516
:10256000006105EB51150099069F21F81C50019D53
:102570000D970C35019501F264650399059F06914D
:10258000029903970591C8E0091A1B1A0098A5EB58
:10259000551520F81C500A9D1DB90498002800F01C
:1025A0004E8407F1180CDDF80080B1F1807F38F817
:1025B0000C5004D21078090240EA03230132C80A01
:1025C0006843834246D2C5F5006105EB5115009979
:1025D00021F80C50019D05F10F0706EB0717B0F12C
:1025E000807F31F8175004D21178000241EA0323AA
:1025F0000132C10A69438B421FD2C5F50060009EBB
:1026000005EB501526F81750029F079E0898C7EB58
:102610000B05BB4528BF00203544049F285C06F805
:102620000B000198062807F101078CBF0B2509252F
:102630000BF1010B04970195BCE3401A5B1A00995A
:10264000A5EB551521F81750029D059F0399029798
:10265000039522E0DDF80080A5EB551528F80C5015
:10266000091A07F1300CB1F1807FC0EB030338F891
:102670000C5004D21078090240EA03230132C80A40
:10268000684383420BD2C5F5006105EB51150099F3
:1026900021F80C50059D0399039505912CE0DDF878
:1026A0000080A5EB5515091A28F80C504837B1F1F0
:1026B000807FC0EB030338F8075004D2107809027A
:1026C00040EA03230132C80A6843834208D2C5F5B1
:1026D0000061DDF800C005EB51152CF807500BE048
:1026E000DDF80080A5EB55151B1A28F80750081ACD
:1026F000069D039906910395019F062F009F8CBFAD
:102700000B210821019107F668250699059F0D9177
:1027100006970399029F05910397B0F1807FB5F862
:1027200000C004D21178000241EA03230132C70A33
:102730000CFB07F7BB4265D205EB0616CCF5006132
:102740000CEB511C0436A5F800C0B7F1807F7088EF
:1027500004D211783F0241EA03230132F90A4143CE
:102760008B4207D2C0F5006500EB551070804FF02A
:10277000020806E0A0EB50105B1A7080791A4FF047
:102780000308B1F1807F4FEA480C36F8187004D284
:102790001078090240EA03230132C80A78438342D1
:1027A00006D2C7F5006107EB511726F80C7009E057
:1027B000A7EB571726F80C704FEA480C1B1A0CF1C0
:1027C000010C081AB0F1807F4FEA4C0536F81C70F6
:1027D00004D21178000241EA03230132C10A79438D
:1027E0008B4205D2C7F5006007EB5017775307E01F
:1027F000A7EB571777534FEA4C055B1A0135411A7F
:10280000083DA9E0C11BACEB5C1CB1F1807FA5F8D1
:1028100000C0C7EB0303B5F802C004D21078090268
:1028200040EA03230132CF0A0CFB07F7BB4266D212
:1028300005EB0616CCF500610CEB511C06F5827613
:10284000A5F802C0B7F1807F708804D211783F02EA
:1028500041EA03230132F90A41438B4207D2C0F512
:10286000006500EB551070804FF0020806E0A0EB09
:1028700050105B1A7080791A4FF00308B1F1807F15
:102880004FEA480C36F8187004D21078090240EA72
:1028900003230132C80A7843834206D2C7F5006198
:1028A00007EB511726F80C7009E0A7EB571726F82D
:1028B0000C704FEA480C1B1A0CF1010C081AB0F10D
:1028C000807F4FEA4C0536F81C7004D21178000264
:1028D00041EA03230132C10A79438B4205D2C7F58D
:1028E000006007EB5017775336E0A7EB5717775385
:1028F0004FEA4C0501355B1A0C95411A2DE0ACEB03
:102900005C1CA5F802C005F50176C91BDB1B01257F
:10291000B1F1807F4FEA450C36F8150004D21778E4
:10292000090247EA03230132CF0A4743BB4208D2D8
:10293000C0F5006100EB511026F80C006D0039461F
:1029400007E0A0EB50106D0026F80C00C91BDB1B44
:102950000135FF2DDCD9F03D0C9501980B2840F294
:10296000E2810C9D009E032D9ABFE80100F558708E
:102970004FF49C603044B1F1807F478804D21678D0
:10298000090246EA03230132CE0A7E43B34207D24C
:10299000C7F5006107EB511747804FF0020C06E0C6
:1029A000A7EB57179B1B47808E1B4FF0030CB6F10C
:1029B000807F4FEA4C0A30F81C7004D2117836023E
:1029C00041EA03230132F10A79438B4206D2C7F56B
:1029D000006607EB561720F80A7009E0A7EB5717B7
:1029E00020F80A704FEA4C0A5B1A0AF1010A711AC0
:1029F000B1F1807F4FEA4A0930F81A7004D2167894
:102A0000090246EA03230132CE0A7E43B34206D2CC
:102A1000C7F5006107EB511720F8097009E0A7EB33
:102A2000571720F809704FEA4A099B1B09F1010961
:102A30008E1BB6F1807F4FEA490830F8197004D236
:102A40001178360241EA03230132F10A79438B42BD
:102A500006D2C7F5006607EB561720F8087009E0A4
:102A6000A7EB571720F808704FEA49085B1A08F1DE
:102A70000108711AB1F1807F4FEA480C30F81870E4
:102A800004D21678090246EA03230132CE0A7E43B5
:102A9000B34206D2C7F5006107EB511720F80C705E
:102AA00009E0A7EB571720F80C704FEA480C9B1B66
:102AB0000CF1010C8E1BB6F1807F4FEA4C0A30F806
:102AC0001C7004D21178360241EA03230132F10A64
:102AD00079438B4206D2C7F5006607EB561720F8FC
:102AE0000A7009E0A7EB57174FEA4C0C5B1A20F865
:102AF0000A70711A0CF1010AAAF14000032840F291
:102B0000018100F001060D284FEA500C46F0020644
:102B10003BD80CF1FF3CCAF53B7A06FA0CF00AF1FF
:102B2000030A009F8244012607EB4A0AB146B1F12D
:102B3000807F4FEA46053AF8167005D292F8008079
:102B4000090248EA032301324FEAD12807FB08F8BB
:102B5000434508D2C7F5006107EB51172AF8057005
:102B6000760041460BE0A7EB571776002AF8057070
:102B7000C8EB0101C8EB0303013640EA0900BCF1D0
:102B8000010C4FEA4909D2D1BCE0ACF1050CB1F11E
:102B9000807F04D21078090240EA032301324908F9
:102BA0005B1AD81700EB4606BCF1010C00EA0100E5
:102BB00006F101060344EAD10098009DB1F1807F3F
:102BC00000F2446790464FEA0610B5F846C605D2B3
:102BD00098F800600902013246EA0323CE0A0CFB92
:102BE00006F6B34209D2CCF500610CEB511C0099FA
:102BF0004FF00209A1F846C60AE0009DACEB5C1C50
:102C00009B1BA5F846C640F001008E1B4FF0030940
:102C1000B6F1807F4FEA490837F819C004D211781D
:102C2000360241EA03230132F10A0CFB01F18B4227
:102C300006D2CCF500660CEB561C27F808C00BE05A
:102C4000ACEB5C1C27F808C04FEA49085B1A08F196
:102C5000010840F00200711AB1F1807F4FEA480983
:102C600037F818C004D21678090246EA0323013265
:102C7000CE0A0CFB06F6B34206D2CCF500610CEB93
:102C8000511C27F809C00BE0ACEB5C1C27F809C00D
:102C90004FEA48099B1B09F1010940F004008E1B13
:102CA000B6F1807F4FEA490A37F819C004D211788B
:102CB000360241EA03230132F10A0CFB01F18B4297
:102CC00006D2CCF500660CEB561C27F80AC007E0CC
:102CD000ACEB5C1C27F80AC05B1A40F00800711AC4
:102CE000451C0FD10C9E019F0598039D029006F58F
:102CF00089760C3F0C960197069E0D9F05950396CD
:102D0000069760E00A9E451C029516B9049FB842DA
:102D100001E00A9DA84217D2019E122E8CBF0A27FD
:102D20000727019707E00598039D069E0D9F0290D7
:102D3000059503960697DDF824C0DDF83080BCEBDE
:102D40000B0608F1020502D1C4F824B077E002981E
:102D5000089FC0EB0B0C834528BF00276046384412
:102D6000049FB54238BF2E4637440497089FAD1BD9
:102D70000C953D1AAE420BD8079D5D44CBEB00008D
:102D8000AF19B3442E5C05F8016BBD42FAD111E0D6
:102D90000025DDF81C8047465F4418F800C007F89E
:102DA00005C0089F01300135B84208BF0020B54278
:102DB000EFD1AB44DDF82480C34504D2DDF83CC03C
:102DC0006245FFF4EBA8B1F1807F04D210780902CC
:102DD00040EA032301322362059BE363236BA26174
:102DE000E1610C980499029A039D069E019FA064DC
:102DF000C4F824B0E162A2632564666467631BB90A
:102E0000E368994228BF236320460B99FFF75AF8DD
:102E1000636ADDF82C804345A36C08D2A269DDF813
:102E20003CC0624503D2B3F5897FFFF47EA8B3F5B9
:102E3000897F84BF4FF48973A364002000E00120E0
:102E400013B0BDE8F08F2DE9F04F8368D0F82C80E7
:102E5000476BC5690669046A4FF0010C0CFA03FC64
:102E60000CF1FF3C0CEA080C0CEB0713B5F1807F6A
:102E70000A4436F8139007D2914280F0EB810B7828
:102E80002D0243EA04240131EB0A09FB03F39C42BF
:102E900079D2056B06F66C6615B9B8F1000F1DD036
:102EA0004568D0F800C0D0F814A04FF0010909FA25
:102EB00005F5013D05EA0808456A08FA0CF805B968
:102EC000856A05F1FF39CCF1080C1AF8095045FA6A
:102ED0000CFCC4444FF4C06505FB0C66062F1CD8DF
:102EE0000120B3F1807F36F8107007D2914280F054
:102EF000B1810D781B0245EA04240131DD0A7D43CE
:102F0000AC424FEA400029BF01302B46C5EB03031A
:102F1000C5EB0404FF28E4D990E1856B476AD0F83B
:102F20001480AF4234BF806A0020C5EB070C4044D8
:102F3000012510F80CC04FF480704FEA4C0C00EAE9
:102F40000C0847194744B3F1807F36F8179007D231
:102F5000914280F07F810F781B0247EA04240131FF
:102F6000DF0A09FB07F7BC424FEA450503D220EA16
:102F700008003B4604E0DB1BE41B013500EA0800C7
:102F8000FF2DDAD95AE1E81AE41A07F1C003B0F1CB
:102F9000807F4FEA430836F8135007D2914280F001
:102FA00059810B78000243EA04240131C30A5D43CE
:102FB000AC4205D206F2646702204FF0000967E0D8
:102FC000431B06EB0800B3F1807FC5EB0404B0F8A7
:102FD000188007D2914280F03D810D781B0245EAAE
:102FE00004240131DD0A08FB05F5AC4220D20F377D
:102FF0000CEB0717B5F1807F36F8170007D2914226
:1030000080F028810B782D0243EA04240131EB0A79
:1030100043439C4209D2B3F1807F80F018819142F2
:1030200034BF03200020BDE8F08FED1AE41A2AE037
:103030005B1BB3F1807FC5EB0404078E07D291427E
:1030400080F008810D781B0245EA04240131DD0A75
:103050007D43AC4217D35B1BB3F1807FC5EB040407
:10306000B0F8485007D2914280F0F48008781B02F3
:1030700040EA04240131D80A4543AC4224BFC5EBE1
:103080000404C5EB030506F6682703204FF00C097E
:10309000B5F1807FB7F8008007D2914280F0DA80E6
:1030A0000B782D0243EA04240131EB0A08FB03F3F9
:1030B0009C4207D207EB0C1704374FF0000A4FF081
:1030C000080823E0ED1AB5F1807FC3EB0404B7F8DC
:1030D000028007D2914280F0BD800B782D0243EA36
:1030E00004240131EB0A08FB03F39C4206D207EBF0
:1030F0000C1707F582774FF0080AE0E7E41A07F5A6
:103100000177EB1A4FF0100A4FF480780125B3F1E4
:10311000807F37F815B008D2914280F09B8091F8FB
:1031200000C01B024CEA042401314FEAD32C0BFBF4
:103130000CFB5C454FEA450529BF01355B46CBEBEF
:103140000303CBEB04044545E1D3B9F1030F76D873
:10315000C8EB0A084544032D9ABFED0105F55875E3
:103160004FF49C6506EB050C0125B3F1807F3CF81C
:10317000158006D291426DD20F781B0247EA0424D3
:103180000131DF0A08FB07F7BC424FEA450529BFBA
:1031900001353B46C7EB0303C7EB04043F2DE4D9DD
:1031A000A5F1400CBCF1030F49D9BCF10D0F4FEA5A
:1031B0005C070DD80CF0010C013FC5F53B754CF0D8
:1031C000020C03350CFA07FC654406EB450616E0D5
:1031D000053FB3F1807F06D291423BD20D781B02AE
:1031E00045EA042401315B08E51AED0F013D1D405D
:1031F000013FC5EB0404ECD106F2446604274FF00E
:10320000010CB3F1807F36F81C8006D2914221D2A6
:103210000D781B0245EA04240131DD0A08FB05F89C
:1032200044454FEA4C0C31BF4346C8EB0303C8EB9F
:1032300004040CF1010C013FE3D100E00120B3F1E3
:10324000807F08D2914228BF0020BDE8F08F032084
:10325000BDE8F08F0020BDE8F08F0023012243621B
:10326000C26483648365C3620363026570472DE9AA
:10327000F04F85B01F46DDF83C909DF838303E6831
:1032800003934FF00008C7F8008004468B461546AC
:10329000FEF718FE89F80080A36CB3F5897F00F073
:1032A000E880E36C53B3A36D6EB1042B0BD85A1CAA
:1032B000A265234415F8012B83F85C203B68013399
:1032C0003B60013EEFE7042B5DD994F85C30002BA6
:1032D00040F0AD8094F85E2094F85D10E364120431
:1032E00042EA016294F86010A3650A4394F85F1003
:1032F00042EA012222624FF0FF32E261636A5B45DB
:1033000009D3A36C002B40F0C080206A002840F055
:10331000C180042380E04FF0000A236DCBB194E814
:103320000C0013444FF440729A40216902F2367245
:103330000023934205D24FF4806021F8130001333B
:10334000F7E7012363642364E363A36300236363F8
:103350002365A36D13B1F21898463EE0132E02D9EF
:10336000BAF1000F1AD0204629463246FFF76BFD0E
:1033700070B9324604F15C00294600F0C9FCA6652C
:103380003B681E443E60032389F80030002087E03C
:10339000BAF1000F06D0022804D045E0A6F11402CD
:1033A0002A4400E02A46A56120465946FEF7B7FDAB
:1033B00000283CD1A3693A685B1B1A443A601D445B
:1033C000F61A69E790450DD0E91A11F8080004EBE8
:1033D000080108F1010881F85C00B8F1130FC3EB94
:1033E000080CEFD9B8F1130FC4F8588004F15C034E
:1033F00002D9BAF1000F1CD019462046424601936B
:10340000CDF808C0FFF71FFD019BDDF808C030B9FB
:103410003B6863443B60032389F8003040E0BAF125
:10342000000F06D0022804D0022389F800300120C2
:1034300036E0A3611A46204659460193CDF808C0EC
:10344000FEF76DFD019BDDF808C00028EFD1A269F1
:10345000D31A984517D3C3EB0808C44513D33B6868
:10346000C8EB0C0C63443B606544CCEB0606A065DE
:1034700012E7236A13B9012389F80030206A00306B
:1034800018BF01200CE00B200AE0039B002BCBD1DE
:10349000022379E7039B002BFAD04FF0010A3CE7A7
:1034A00005B0BDE8F08F2DE9F04F89B09A46129F24
:1034B00015683B6804938B4600239DF84C101360FD
:1034C0000446904605913B600499636A0791A16A9E
:1034D0008B4204BF00236362D4F82490C9EB01033C
:1034E0009D4294BF059B00230093149B019398BFBA
:1034F00005EB0901524607AB2046FFF7B8FE079AD5
:103500000499891A0491396892440A443A60666AB7
:103510006169C9EB0606034632465846494403939F
:1035200000F0F6FBD8F80020039B3244B344AD1BF7
:10353000C8F8002023B92EB1002DC5D1284602E0DD
:10354000184600E0304609B0BDE8F08F10B50446DB
:103550004B680846216998470023236110BD70B568
:1035600091E828001D444FF4407303FA05F5036900
:103570000446164605F2367513B1436D9D420ED0D2
:1035800020463146FFF7E2FF33683046690098472E
:1035900065652061002814BF0020022070BD002056
:1035A00070BD38B504460D46FFF7D0FF6B68616902
:1035B000284698470023636138BD042A26D9CB7872
:1035C0008A781B0443EA02234A7813430A7943EAC0
:1035D0000263B3F5805F38BF4FF48053C3600A784D
:1035E000E02A13D80923B2FBF3F303EBC301521A09
:1035F000D2B20260DAB20523B2FBF3F3836003EBCD
:103600008303D21AD2B24260002070470420704770
:10361000F0B585B0044668461E466D46FFF7CDFFFF
:10362000002834D1204669463246FFF798FF00282B
:103630002DD1039B174FB3F1804F06D2164940F6A8
:10364000FF72BB428CBF0F461746FA18616922EA27
:1036500007079F4238BF1F4611B1A36A9F4210D08F
:1036600073683046984700236361336830463946B3
:103670009847606128B920463146FFF767FF02206E
:1036800005E095E80F00A76284E80F00002005B070
:10369000F0BD00BFFFFF3F00FFFF0F0038B504463D
:1036A00038B3013900F14405032912D8DFE801F0ED
:1036B00002040709104900E0104920220BE01049DC
:1036C00000E01049402200F023FB28460021802220
:1036D00006E00D49142200F01BFB28460021402281
:1036E00000F01FFB0020C4F8C4002064C4F8C80028
:1036F00000E0FF2040B238BDF0580020885900207B
:10370000B058002024590020105900202DE9F74F0F
:103710004022019104460021554800F002FB019A25
:10372000531EDBB2032B0ED8524A534912F803B092
:10373000524A11F80390D65C514A002732F8132000
:103740004FF0080A08E005264FF010094FF4837285
:103750000227B2464FF0400B4A4D45494A482A607D
:10376000E860E961D4F8C8205A458846D4F8C41006
:1037700009D300F0CDFAD4F8C820B2FBFBF209FB64
:1037800002F2AA6004E0802200F0C2FAC5F80890B4
:10379000019BA3F103095FFA89F9B9F1010F4FF019
:1037A000000216D802F1010ED2B2524521D24FEAE0
:1037B000021C0CF10341520001F5742154F822005F
:1037C00008600132314954F8222041F80C20724639
:1037D000E8E7501CD2B2524509D2110101F1034170
:1037E00001F5732154F822200A600246F1E7284BC4
:1037F00000E0284B1F601A6842F010021A602B6824
:1038000043F010032B600120FCF7BBFDB9F1010F61
:103810004FF0000310D8B34219D258F82320591C96
:1038200012BA44F8212008EB8302526812BA44F815
:1038300023200233DBB2EEE7591CDBB2B34208D2DD
:1038400058F8232012BA44F823200B46F4E7114B12
:1038500000E00F4B1A6822F010021A602B6823F068
:1038600010032B600023C4F8C83003B0BDE8F08F0C
:1038700098460120845900206C590020A859002046
:103880006459002004000F839845012004400F83F1
:1038900000320F8300420F832DE9F74F9A46D0F88C
:1038A000C870033B012B8CBF40258025D319AB4248
:1038B00004468B46164607F1400034D3EF1B2044E4
:1038C0003A46043004F1440900F022FAC7EB060836
:1038D0005146C4F8C850C4F8C4902046FFF716FFFC
:1038E000B8FBF5F205FB02F30BEB0701C3EB08088D
:1038F000C4F8C4105AB1C4F8C830204651460193E8
:10390000FFF704FF019B1F445F44C4F8C4702A46BC
:103910004846002100F005FA4846D4F8C410424653
:1039200000F0F6F907E02044043000F0F1F9D4F893
:10393000C83006EB0308236CC4F8C88000201E447E
:103940002664C4F8C40003B0BDE8F08F2DE9F04F41
:1039500087B0924603918346002800F08E800029AC
:1039600000F08B80511EC9B203290CD84548464A45
:10397000435C4648545C10F801C04548454A405CE9
:10398000525C029006E0142302934FF0050C38239A
:1039900037224024DBF8C8100BEB0100802580F8AB
:1039A000445091420BF14400CBF8C4000FD9584663
:1039B00051460193CDF800C0FFF7A8FEDBF8C40024
:1039C0000021224600F0ADF9DDF800C0019BDBF8D4
:1039D0004010CA0002F47F40050202F47F00002478
:1039E0004FEA10294FEA0068CF0602F07F4248EA0A
:1039F000040849EA0509DBF8C40049EA0709160288
:103A0000170E48EA040806A946EA080647EA090725
:103A100061E9026708221844CDF800C000F078F987
:103A200051465846AAF1030AFFF770FEBAF1010F9A
:103A30005A46DDF800C002D90BEB8C0C16E0644549
:103A400002F108020BD252F8081C08BA52F8041C02
:103A500042F8040C09BA42F8081C0234EFE7039854
:103A6000029A594600F054F9002007E06245F6D06A
:103A7000116809BA42F8041BF8E7FF2040B207B00A
:103A8000BDE8F08F7C590020745900208059002037
:103A9000705900207859002080F0004002E000BFFB
:103AA00081F0004142001FBF5FEA410392EA030F29
:103AB0007FEA226C7FEA236C6AD04FEA1262D2EB73
:103AC0001363C1BFD218414048404140B8BF5B4278
:103AD000192B88BF704710F0004F40F4000020F011
:103AE0007F4018BF404211F0004F41F4000121F027
:103AF0007F4118BF494292EA030F3FD0A2F1010271
:103B000041FA03FC10EB0C00C3F1200301FA03F1AE
:103B100000F0004302D5494260EB4000B0F5000FD1
:103B200013D3B0F1807F06D340084FEA310102F190
:103B30000102FE2A51D2B1F1004F40EBC25008BF42
:103B400020F0010040EA03007047490040EB00000C
:103B500010F4000FA2F10102EDD1B0FA80FCACF13B
:103B6000080CB2EB0C0200FA0CF0AABF00EBC2503A
:103B700052421843BCBFD0401843704792F0000F28
:103B800081F4000106BF80F400000132013BB5E77B
:103B90004FEA41037FEA226C18BF7FEA236C21D0F1
:103BA00092EA030F04D092F0000F08BF0846704756
:103BB00090EA010F1CBF0020704712F07F4F04D124
:103BC000400028BF40F00040704712F100723CBF37
:103BD00000F50000704700F0004343F0FE4040F461
:103BE000000070477FEA226216BF08467FEA23631F
:103BF0000146420206BF5FEA412390EA010F40F40A
:103C0000800070474FF0000304E000BF10F0004355
:103C100048BF40425FEA000C08BF704743F096433C
:103C200001464FF000001CE050EA010208BF704757
:103C30004FF000030AE000BF50EA010208BF7047DE
:103C400011F0004302D5404261EB41015FEA010CF3
:103C500002BF84460146002043F0B64308BFA3F1EB
:103C60008053A3F50003BCFA8CF2083AA3EBC253CD
:103C700010DB01FA02FC634400FA02FCC2F12002EC
:103C8000BCF1004F20FA02F243EB020008BF20F023
:103C90000100704702F1200201FA02FCC2F1200289
:103CA00050EA4C0021FA02F243EB020008BF20EA7E
:103CB000DC7070471FB5064608480068C06812B13E
:103CC0001546074C01E0074C25461A468DE83200A0
:103CD0003346054900F00AF800F0B6FBEC6E002010
:103CE000AC59002090520020B95900200EB403B501
:103CF000014603AB054853F8042B0068019300F01C
:103D000041F802B05DF804EB03B07047EC6E0020A0
:103D100010B50023934203D0CC5CC4540133F9E7BF
:103D200010BD02440346934202D003F8011BFAE798
:103D300070479368013B002B10B5936005DA9469D6
:103D4000A34208DBCBB20A2B05D01368581C1060C5
:103D50001970C8B210BDBDE8104000F0B3BAF8B594
:103D600005460E461446D718BC4208D0284614F81B
:103D7000011B3246FFF7DDFF431CF5D100E00020B8
:103D8000F8BD00002DE9F0439DB00D4617460393A2
:103D9000064618B183690BB900F05EFC734B9D4277
:103DA00001D1756808E0724B9D4201D1B56803E00E
:103DB000704B9D4208BFF568AB8918070AD52B697F
:103DC00043B10023099320238DF8293030238DF847
:103DD0002A3038E03046294600F0C8FA0028F0D0F2
:103DE0004FF0FF30BFE0039A111D12680391002AC3
:103DF00070DB0792013423782E2B7DD05E4F217823
:103E00003846032200F0E0FC30B1C71B049B402081
:103E1000B840034304930134217858488DF82810A2
:103E20000622671C00F0D0FC002800F08A80544B6A
:103E3000002B7DD1039B073323F007030833039343
:103E4000099B434409933B461C4613F8012B1AB9BE
:103E5000B4EB07090ED002E0252AF5D1F8E7304689
:103E600029463A464B46FFF77AFF013076D0099B48
:103E70004B4409932378002B70D000234FF0FF327E
:103E800004930793059206938DF853301A9304F127
:103E900001094C463B4F21783846052200F094FC3E
:103EA00009F10109049B28B1C71B0120B840034355
:103EB0000493EEE7D90644BF20228DF853201A0759
:103EC00044BF2B228DF8532022782A2A8BD0079BBF
:103ED000214605E0524243F002030792049389E72A
:103EE0000C4601312278303A092A03D80A2000FB17
:103EF0000323F5E707937EE763782A2B0AD1039B18
:103F00001A1D1B680392002B04F10204B8BF4FF086
:103F1000FF330BE0611C00230C4601312278303A5C
:103F2000092A03D80A2000FB0323F5E7059365E778
:103F300003AB0093304604A92A46134BAFF300802D
:103F400007E003AB0093304604A92A460E4B00F06D
:103F50008FF8B0F1FF3F80467FF472AFAB895B060C
:103F60003FF53EAF09981DB0BDE8F083205A002010
:103F7000405A0020605A0020F2590020F6590020D3
:103F800000000000EC5900205F3D00202DE9F843BF
:103F900015461F468A680B69DDF820809A42A8BF43
:103FA00013462B6091F8432006460C460AB10133B4
:103FB0002B602368990602D52B6802332B60236897
:103FC00013F006091DD094F843302268003318BF5F
:103FD000012392061FD5E1185A1C302081F84300B6
:103FE000224494F8451082F84310023313E030461F
:103FF000394604F119020123C047013007D009F105
:104000000109E2682B68D31A9945F0DBDBE74FF032
:10401000FF30BDE8F8833046394604F14302C0471B
:104020000130F4D023682A68E16803F00603042B0A
:1040300008BFC2EB01052369A2680CBF25EAE5753C
:1040400000259A42C4BFC3EB0203ED184FF00009EC
:10405000A9450ADA3046394604F11A020123C0475D
:104060000130D4D009F10109F2E70020BDE8F8835E
:104070002DE9FF470E7E0C9D6E2E80460C46914624
:104080009A4601F1430000F0A58011D8632E22D09A
:1040900009D8002E00F0AF80582E40F0BF8081F884
:1040A00045607B4A4FE0642E1ED0692E1CD0B5E0DF
:1040B000732E00F0A48009D86F2E2BD0702E40F004
:1040C000AD800B6843F020030B6038E0752E21D0E3
:1040D000782E34D0A2E02B681A1D1B682A6001F1EB
:1040E000420781F842309DE022682B6812F0800F71
:1040F00003D01A1D2A601D6805E05106F9D51A1D66
:104100002A60B3F90050002D39DA2D236D4284F86E
:10411000433034E022682B6812F0800F03D01A1D60
:104120002A601D6804E05206F9D51A1D2A601D8810
:10413000237E574A6F2B14BF0A2308231BE07823E2
:10414000544A84F845302368296813F0800F01F140
:1041500004062E6001D00D6802E05F06FBD50D88D5
:10416000DE0744BF43F0200323601DB9236823F01A
:10417000200323601023002184F8431001E0444A07
:104180000A236668A660002E03DB216821F0040183
:10419000216005B96EB104F14201B5FBF3F603FBF2
:1041A00016550F46555D01F801593546002EF4D1DC
:1041B00000E00746082B0AD12368DD0707D56268AF
:1041C00023699A4203DC302307F8013C013FC01BFE
:1041D00020612CE009682B68626911F0800F04D01F
:1041E000191D29601B681A6005E04906F8D5191DDC
:1041F00029601B681A8000232361074617E02B689B
:104200001A1D2A601F68384600F00DFC63682061A3
:10421000984288BF23612369636005E004F1420787
:1042200084F8426001232361002384F84330CDF8F1
:1042300000A04046214603AA4B46FFF7A7FE0130E7
:1042400002D14FF0FF301FE0404649463A4623690D
:10425000D0470130F5D023689B0705D4E068039B65
:104260009842B8BF18460FE00025E268039BD31AB6
:104270009D42F3DA4046494604F119020123D04732
:104280000130DED00135F0E704B0BDE8F08700BFB3
:10429000FD5900200E5A0020094B2DE9F0411C6801
:1042A00007460E4624B1A56915B9204600F0D4F999
:1042B0002046A1683A463346BDE8F041FFF762BDAB
:1042C000EC6E002070B50E461446054618B18369A1
:1042D0000BB900F0C1F9224B9C4201D16C6808E097
:1042E000204B9C4201D1AC6803E01F4B9C4208BFAD
:1042F000EC68A369A360A3891A0709D523693BB1B8
:1043000023692068C01A63699842F6B20FDB08E09F
:104310002846214600F02AF80028F1D04FF0FF305F
:1043200070BD2846214600F019F90028F6D1A3688F
:10433000013BA36023685A1C22601E706369013030
:10434000984204D0A389DB0707D50A2E05D1284659
:10435000214600F003F90028E0D1304670BD00BFCF
:10436000205A0020405A0020605A0020324B70B57D
:104370001D6806460C4625B1AB6913B9284600F006
:104380006BF92E4B9C4201D16C6808E02C4B9C428F
:1043900001D1AC6803E02B4B9C4208BFEC68A289BA
:1043A00093B2190720D4DD0605D4092342F0400258
:1043B0003360A2813BE0580712D5616B41B104F133
:1043C0004403994202D0304600F00EFA00236363A2
:1043D000A38923F02403A38100236360236923605E
:1043E000A38943F00803A38123694BB9A38903F48C
:1043F0002073B3F5007F03D03046214600F096F9D4
:10440000A38913F0010205D00022A2606269524222
:10441000A26103E0990758BF6269A26022694AB9A4
:1044200003F0800080B230B143F04003A3814FF02D
:10443000FF3070BD002070BDEC6E0020205A0020BF
:10444000405A0020605A002008B5062000F08CFA7F
:104450000120FDF7C4FB8A892DE9F04105461007CC
:104460000C4657D44B68002B02DC0B6C002B18DD7C
:10447000E66AB6B102F48052002392B22F682B6034
:104480000AB1626D10E0216A28460123B047411C41
:10449000024609D12B683BB11D2B01D0162B46D10A
:1044A0002F600020BDE8F081A3895B0705D5636814
:1044B000D21A636B0BB1236CD21AE66A216A2846C2
:1044C0000023B047461CA28905D12B681BB11D2BC8
:1044D00001D0162B19D100236360D1042369236016
:1044E00004D5421C01D12B6803B96065616B2F6054
:1044F0000029D6D004F14403994202D0284600F0A6
:1045000073F900206063BDE8F08142F04002A281AF
:10451000BDE8F0810E69002EC3D00B680E60C6EBBB
:10452000030893070CBF4B6900238B6012E0A3893B
:1045300043F04003A3814FF0FF30BDE8F081A76A4C
:10454000216A284632464346B8470028EFDD064434
:10455000C0EB0808B8F1000FF1DCA2E738B50B6931
:1045600005460C46DBB118B183690BB900F074F84D
:104570000C4B9C4201D16C6808E00B4B9C4201D172
:10458000AC6803E0094B9C4208BFEC68B4F90C30FE
:104590002BB128462146BDE83840FFF75CBF00201C
:1045A00038BD00BF205A0020405A0020605A002029
:1045B000F8B5074600F1480494B1A5686668013E65
:1045C0000CD4AB89012B07D9B5F90E30013303D0D8
:1045D00038462946FFF7C2FF6835F0E72468EBE765
:1045E000F8BD0000002310B50446036043608360FB
:1045F00081814366C28103614361836119465C30F6
:104600000822FFF78EFB054B6362054BA362054B47
:10461000E362054B2462236310BD00BFA149002063
:10462000C3490020FB4900201F4A002070B54B1EE3
:1046300068255D430E4605F1740100F019F9044642
:1046400040B1002180E842000C30A06005F1680212
:10465000FFF767FB204670BD836910B5044633BB86
:104660008364C3640365124B124A1B6882629842DA
:1046700004BF0123836100F01FF86060204600F052
:104680001BF8A060204600F017F80421E06000222B
:104690006068FFF7A7FFA06809210122FFF7A2FFCA
:1046A000E06812210222FFF79DFF0123A36110BDE4
:1046B000E8590020B1450020F8B51B4B1E68B369CE
:1046C000074613B93046FFF7C7FF4836B46873682A
:1046D000013B04D4B4F90C5075B16834F8E7336881
:1046E0002BB938460421FFF7A1FF306008B13668C6
:1046F000ECE70C233B60F8BD4FF6FF73E381012329
:10470000A38165662560A560656025616561A56119
:1047100004F15C0029460822FFF703FB6563A563EB
:10472000A564E5642046F8BDE8590020F0B58B8902
:104730009E0791B005460C4626D4B1F90E1000290B
:1047400009DAA38913F0800F4FF0000714BF402649
:104750004FF480660DE001AA00F090F90028F0DB2C
:10476000029F07F47047B7F500514F424F414FF495
:1047700080662846314600F07BF860B9A3899A0527
:104780001DD443F00203A38104F147032360236196
:104790000123636113E00B4BAB62A389206043F0FC
:1047A0008003A381206166614FB12846B4F90E10E1
:1047B00000F076F918B1A38943F00103A38111B089
:1047C000F0BD00BFB145002010B5C9B2024490420F
:1047D000034606D01C788C4200F10100F7D1184640
:1047E00010BD002010BD000030B500293CD051F8AC
:1047F000042C0B1F1D49002AB8BF9B180A680C46E1
:1048000012B95A600B6030BD93420DD21968581826
:10481000904203D15A581144426819605A6023608B
:1048200030BD994203D80A4651680029F9D114686D
:1048300015199D420AD11B682344D0188842136081
:1048400012D10868034413604B680CE002D90C23B2
:10485000036030BD18681C188C4203D10C6849688D
:10486000204418605960536030BD00BFDC46012011
:1048700070B5CD1C25F0030508350C2D38BF0C256F
:10488000002D06463FDB8D423DD3214B1C68184668
:104890002146A1B10B685B1B0ED40B2B03D90B6017
:1048A000CC18CD501FE08C4202D1626802601AE041
:1048B0004B6863600C4616E00C464968E9E7154C06
:1048C00023681BB93046FDF767F92060294630465A
:1048D000FDF762F9431C014615D0C41C24F0030403
:1048E00084420AD1256004F10B00231D20F007004B
:1048F000C31A0BD05A42E25070BD3046611AFDF720
:104900004BF90130EED10C233360002070BD00BFA5
:10491000DC460120D84601201F2938B505460C4643
:1049200004D9162303604FF0FF3038BD426C12B13A
:1049300052F821304BB9284600F030F822460146A3
:104940002846BDE8384000F017B8012B0AD0591CA2
:1049500003D116230360012038BD002542F82450FE
:1049600020469847002038BD024B01461868FFF7E3
:10497000D3BF00BFEC6E002038B5074C00230546BE
:10498000084611462360FDF72BF9431C02D123682A
:1049900003B12B6038BD00BFE0460120FDF71DB913
:1049A00010B50C46B1F90E1000F09CF8002803DB9E
:1049B000636D0344636510BDA38923F48053A38111
:1049C00010BD2DE9F0411D468B89DB0507460C46DD
:1049D000164605D5B1F90E100022022300F070F83A
:1049E000A389B4F90E1023F48053A38138463246CC
:1049F0002B46BDE8F04100F01FB810B50C46B1F9E8
:104A00000E1000F05DF8431CA38903D123F48053FA
:104A1000A38110BD43F48053A381606510BDB1F93B
:104A20000E1000F01BB8034613F8012B002AFBD12F
:104A3000181A01387047000038B5074C05460020A9
:104A40002060084611461A46FDF7BAF8431C02D109
:104A5000236803B12B6038BDE046012038B5064C11
:104A60000023054608462360FDF78CF8431C02D15D
:104A7000236803B12B6038BDE046012038B5074CF0
:104A800000230546084611462360FDF77DF8431CC8
:104A900002D1236803B12B6038BD00BFE04601207E
:104AA00038B5064C0023054608462360FDF76EF82E
:104AB000431C02D1236803B12B6038BDE0460120BE
:104AC00038B5074C054600202060084611461A46B6
:104AD000FDF75EF8431C02D1236803B12B6038BD9B
:104AE000E046012038B5074C054600202060084606
:104AF00011461A46FDF74EF8431C02D1236803B154
:104B00002B6038BDE04601206770745F6765745F95
:104B100063757272656E745F74696D650066726547
:104B2000655F73665F6C6F636B002E2E2F2E2E2FCA
:104B30002E2E2F2E2E2F2E2E2F6472697665722F19
:104B4000636869702F6D74373638372F7372632F2F
:104B5000636F6D6D6F6E2F666C6173685F736663F4
:104B60002E6300300053465F44414C5F464C414742
:104B70005F425553592829006765745F73665F6CFF
:104B80006F636B00466C6173685F52657475726E1B
:104B900052656164790053465F44414C5F436865E8
:104BA000636B446576696365526561647900534659
:104BB0005F44414C5F436865636B52656164794152
:104BC0006E64526573756D65004153534552542CA4
:104BD000205F5F46494C455F5F203D2025732C20B8
:104BE0005F5F4C494E455F5F203D202575002E2EAE
:104BF0002F2E2E2F2E2E2F2E2E2F2E2E2F6472691B
:104C00007665722F636869702F6D74373638372F69
:104C10007372632F636F6D6D6F6E2F6770742E6389
:104C2000002E2E2F2E2E2F2E2E2F2E2E2F2E2E2FCD
:104C30006472697665722F636869702F6D74373698
:104C400038372F7372632F636F6D6D6F6E2F7366BE
:104C5000632E63001070710101060102B1010001B1
:104C6000017500010106010301000200666C617319
:104C7000685F776169745F726561647900010166DC
:104C800001019900666C6173685F777269746500F1
:104C900001010601030100000001010601023100CB
:104CA0000020436865636B20666C617368206465EF
:104CB00076696365204661696C6564202121200A5C
:104CC0000D00737069206465766963652069643AD4
:104CD00020257820257820257820282578290A0D78
:104CE000002E2E2F2E2E2F2E2E2F2E2E2F2E2E2F0D
:104CF0006472697665722F636869702F6D743736D8
:104D000038372F7372632F636F6D6D6F6E2F7370F3
:104D1000695F666C6173682E6300737069206465F7
:104D2000766963652069643A2025782025782025F6
:104D30007820282578290A0066696E6420666C61EF
:104D400073683A2025730A00446F6E2774207375C8
:104D500070706F727420666C6173683A2025730AF4
:104D600000666C6173685F726561645F7372323A8A
:104D7000206E6F20696E697420666C6173682021F3
:104D80000A004445465F464C41534800573235516E
:104D900033324A5600573235513136445600573275
:104DA000355138304456004D5832354C3332333358
:104DB00046004D5832354C3136333546004D583269
:104DC00035563136333546004D5832355638303346
:104DD0003546004B48323556313633354600474468
:104DE000323551333243534947004744323551310C
:104DF0003643534947004744323556453332430022
:104E00004E3235513132384100666C6173685F63F0
:104E10006F6E666967000101060102B10000666CF1
:104E20006173685F726561645F73723200666C61A2
:104E300073685F696E697400010106010231020046
:104E40000301FF00010106010301000200666C611D
:104E500073685F636865636B5F646576696365004B
:104E600001010601023102000101060102014000B8
:104E7000030166030199000101060103010002011B
:104E800001380000824D0020FF000000FFFFFFFFFF
:104E90000010000000010000000000008C4D002008
:104EA000EF0000000000164000400000000100007C
:104EB000326BEB00954D0020EF0000000000154024
:104EC0000020000000010000326BEB009E4D00202E
:104ED000EF0000000000144000100000000100007E
:104EE000326BEB00A74D0020C2000000000016202E
:104EF0000040000000010000386BEB00B24D0020C4
:104F0000C200000000001520002000000001000089
:104F1000386BEB00BD4D0020C200000000001520E2
:104F20000020000000010000386BEB00C84D00209D
:104F3000C20000000000142000100000000100006A
:104F4000386BEB00D34D0020C20000000000152399
:104F50000020000000010000386BEB00DE4D002057
:104F6000C8000000000016400040000000010000E2
:104F7000326BEB00EA4D0020C80000000000154035
:104F80000020000000010000326BEB00F64D002015
:104F9000C8000000000016420020000000010000D0
:104FA000326BEB00004E002020000000000018BA19
:104FB0000000010000010000326BEB0001017A00EB
:104FC00001010601020100000000100044009200EF
:104FD0002900AA00B600DB00AD00FF00FF000000C2
:104FE00000000000000001000100010001000100BC
:104FF00001000300697372435F6D61696E00455281
:10500000524F523A206E6F204952512068616E64AF
:105010006C657221200A0068616C5F6770745F675D
:1050200065745F667265655F72756E5F636F756EDE
:105030007400496E76616C696420706F72743A20F6
:1050400025642E0053686F756C642063616C6C205E
:1050500020706F72743A2025642E00496E76616C60
:10506000696420706172616D657465723A202564AF
:105070002E00496E76616C69642068616C5F6770B0
:10508000745F73746F705F74696D657220746F20E4
:1050900073746F7020706F72743A2025642E00490B
:1050A0006E76616C696420706F72743A2025642E8C
:1050B000204F6E6C7920706F72742030206F7220D8
:1050C0003120776F726B732061732074696D657224
:1050D0002E0068616C5F736861315F617070656E2E
:1050E0006400636F6E74657874206973204E554C4C
:1050F0004C2E006D657373616765206973204E5592
:105100004C4C2E006E0000002C010000B00400008A
:1051100060090000C012000080250000004B000064
:105120000096000000E1000000C2010000840300BE
:105130000008070000100E0000000100020003003C
:105140000000080018000000000000000400040037
:105150000101060103010002000301FF000000003D
:105160007777888888888888888888888848848825
:105170008808778888888888888888888868868862
:1051800088888888080000006C6F616465722069F7
:105190006E6974200D0A00666F74613A207570673D
:1051A000726164650D0A00666F74613A2073746100
:1051B000727420636F70790D0A00666F74613A2013
:1051C000544D5020697320656D7074792C20736B79
:1051D000697020757067726164650D0A00666F748E
:1051E000613A207570677261646520646F6E650D49
:1051F0000A00666F74613A20757067726164652099
:105200006661696C65640D0A006A756D7020746F63
:105210002028257829200D0A0009030000666F74F4
:10522000615F69735F656D707479005F666F74614B
:105230005F636865636B5F7570646174696E675FF7
:105240006D61726B657200666F74615F636F707918
:10525000005F666F74615F636865636B5F666F7440
:10526000615F747269676765726564005F666F7419
:10527000615F756E636F6D70726573735F75706477
:10528000617465005F626C5F6672656520200D0A5F
:10529000005F626C5F616C6C6F632073697A65207C
:1052A0003D202564200D0A005F626C5F616C6C6FAD
:1052B00063206C7A6D615F616C6C6F635F636F75A7
:1052C0006E74203D202564200D0A00653A20257368
:1052D0002025640A00666F756E64207570646174C1
:1052E000696E67206D61726B65720D0A00666F757D
:1052F0006E6420666F746120747269676765726599
:10530000640D0A006865616465722073686131200C
:10531000696E6974200D0A006865616465722065B4
:105320006E64200D0A0068656164657220636865BB
:10533000636B73756D2020203D2000257800686523
:105340006164657220696E7465677269747920633F
:105350006865636B206661696C0D0A00666F746135
:105360005F686561642E6D5F6D616769635F766517
:1053700072202020202020202020202020202020DB
:1053800020202020203D202578200A0D00666F7403
:10539000615F686561642E6D5F62696E5F6E756DD9
:1053A00020202020202020202020202020202020FD
:1053B0002020202020203D202578200A0D00666F27
:1053C00074615F686561642E6D5F62696E5F696EAE
:1053D000666F5B25645D2E6D5F62696E5F6C656EE6
:1053E00067746820202020203D202578200A0D00A9
:1053F000666F74615F686561642E6D5F62696E5F80
:10540000696E666F5B25645D2E6D5F62696E5F6FAE
:10541000666673657420202020203D202578200AB0
:105420000D00666F74615F686561642E6D5F62690F
:105430006E5F696E666F5B25645D2E6D5F62696E7F
:105440005F73746172745F61646472203D202578BB
:10545000200A0D00666F74615F686561642E6D5F80
:1054600062696E5F696E666F5B25645D2E6D5F704D
:105470006172746974696F6E5F6C656E20203D2087
:105480002578200A0D00666F74615F686561642E7F
:105490006D5F62696E5F696E666F5B25645D2E6D20
:1054A0005F7369675F6C656E6774682020202020D9
:1054B0003D202578200A0D00666F74615F68656184
:1054C000642E6D5F62696E5F696E666F5B25645DF9
:1054D0002E6D5F7369675F6F666673657420202049
:1054E00020203D202578200A0D00666F74615F68DA
:1054F0006561642E6D5F62696E5F696E666F5B25C4
:10550000645D2E6D5F69735F636F6D707265737339
:10551000656420203D202578200A0D0063616C63BE
:10552000756C617465206F732062696E20636865B5
:10553000636B73756D203A0D0A0070726F67726548
:105540007373203D2025642F3130300D0A007368BD
:10555000613120656E64200D0A006F732062696EF0
:1055600020636865636B73756D2020203D200066A5
:105570006F74612062696E20636865636B73756D1B
:10558000203D2000696E74656772697479206368D4
:1055900065636B20706173730D0A00434D34207096
:1055A0006172746974696F6E206861726420636FE0
:1055B00064652061646472203D202578200D0A0016
:1055C000434D3420706172746974696F6E20666F28
:1055D000746120686561642061646472203D2025E7
:1055E00078200D0A00737461727420666F746120F4
:1055F000757064617465203A200D0A00666F7461ED
:1056000020627265616B0D0A007020616464722013
:10561000202020202020202020202020202020208A
:10562000202020202020202020202020202020207A
:105630002020203D202578200A0D006C7A6D615FC6
:10564000736F757263652020202020202020202089
:105650002020203D202578200D0A006C7A6D615FA6
:10566000646573745F73697A652020202020202090
:105670002020203D202578200D0A006C7A6D615F86
:10568000646573745F616464722020202020202090
:105690002020203D202578200D0A00666F746120AF
:1056A000636F6D70726573732073746174757320AA
:1056B0003D202564200D0A007570646174696E6771
:1056C000206D61726B6572206578697374730D0A61
:1056D000005F666F74615F65726173655F66696EB6
:1056E000616C5F626C6F636B005F666F74615F69B2
:1056F0006E746567726974795F636865636B005F78
:10570000666F74615F77726974655F7570646174E8
:10571000655F737461747573005F666F74615F7742
:10572000726974655F6D61726B6572005F626C5F58
:10573000616C6C6F63005F666F74615F7061727340
:10574000655F686561646572005F666F74615F6361
:105750006F6D70726573735F7570646174650064FA
:10576000657374696E6174696F6E206572726F72B1
:105770003A206D75737420617420626567696E20CC
:1057800061646472657373206F66206F6E6520625A
:105790006C6F636B0072656164206865616465723B
:1057A000206661696C0D0A004552524F523A2064DE
:1057B00065636F6D707265737365642073697A6574
:1057C000206F7665722072657365727665726420EB
:1057D00073697A652121210D0A004C5A4D412064DC
:1057E00065636F646520626567696E3A200D0A0023
:1057F00064657374696E6174696F6E203D202578ED
:105800000D0A00736F75726365203D2025780D0ABF
:1058100000756E7061636B65645F73697A65203DC6
:105820002025640D0A00696E627566206D616C6CDE
:105830006F63206661696C6564210D0A006F757481
:10584000627566206D616C6C6F63206661696C6562
:1058500064210D0A004C5A4D415F666C6173685FAC
:10586000696E6974206661696C0D0A004C5A4D417D
:105870005F726561645F646174612C20616464724D
:10588000203D202578200D0A007265616420646146
:105890007461206661696C200D0A004C5A4D415FAD
:1058A0007772697465206661696C0D0A00000000FA
:1058B000D89E05C15D9DBBCB07D57C362A299A624F
:1058C00017DD70305A01599139590EF7D8EC2F1560
:1058D000310BC0FF6726336711155868874AB48EAD
:1058E000A78FF9640D2E0CDBA44FFABE1D48B547F7
:1058F000D89E05C107D57C3617DD703039590EF7B3
:10590000310BC0FF11155868A78FF964A44FFABE78
:105910000123456789ABCDEFFEDCBA98765432108F
:10592000F0E1D2C308C9BCF367E6096A3BA7CA84A1
:1059300085AE67BB2BF894FE72F36E3CF1361D5FAB
:105940003AF54FA5D182E6AD7F520E511F6C3E2B2A
:105950008C68059B6BBD41FBABD9831F79217E13FE
:1059600019CDE05B06010601070107011010202098
:105970001C2030404040808037376F6F383878784F
:10598000080810104040808067E6096A85AE67BB52
:1059900072F36E3C3AF54FA57F520E518C68059B11
:1059A000ABD9831F19CDE05B080810102C20667559
:1059B0006E6374696F6E3A20006173736572746907
:1059C0006F6E2022257322206661696C65643A201F
:1059D00066696C6520222573222C206C696E652017
:1059E0002564257325730A008C6E0020232D302B2F
:1059F0002000686C4C0065666745464700303132D0
:105A00003334353637383941424344454600303126
:105A10003233343536373839616263646566000085
:105A20000000000000000000000000000000000076
:105A30000000000000000000000000000000000066
:105A40000000000000000000000000000000000056
:105A50000000000000000000000000000000000046
:105A60000000000000000000000000000000000036
:105A70000000000000000000000000000000000026
:105A800007B502A9002041F8040DFAF7D3FE28B1AA
:105A90000448054A054B5C21FEF70CF9019803B058
:105AA0005DF804FB2A4B0020084B0020634B0020CC
:105AB000014B01221A707047F06E0020014B00224A
:105AC0001A707047F06E0020014B01221A70704767
:105AD000F16E0020014B00221A707047F16E002019
